{
  "contractName": "DiagnosticRegistration",
  "abi": [
    {
      "anonymous": false,
      "inputs": [
        {
          "indexed": false,
          "internalType": "string",
          "name": "hhNumber",
          "type": "string"
        },
        {
          "indexed": false,
          "internalType": "string",
          "name": "diagnosticName",
          "type": "string"
        },
        {
          "indexed": false,
          "internalType": "address",
          "name": "walletAddress",
          "type": "address"
        }
      ],
      "name": "DiagnosticRegistered",
      "type": "event"
    },
    {
      "inputs": [
        {
          "internalType": "string",
          "name": "_diagnosticName",
          "type": "string"
        },
        {
          "internalType": "string",
          "name": "_hospitalName",
          "type": "string"
        },
        {
          "internalType": "string",
          "name": "_diagnosticLocation",
          "type": "string"
        },
        {
          "internalType": "string",
          "name": "_email",
          "type": "string"
        },
        {
          "internalType": "string",
          "name": "_password",
          "type": "string"
        }
      ],
      "name": "registerDiagnostic",
      "outputs": [],
      "stateMutability": "nonpayable",
      "type": "function"
    },
    {
      "inputs": [
        {
          "internalType": "string",
          "name": "_hhNumber",
          "type": "string"
        }
      ],
      "name": "isRegisteredDiagnostic",
      "outputs": [
        {
          "internalType": "bool",
          "name": "",
          "type": "bool"
        }
      ],
      "stateMutability": "view",
      "type": "function",
      "constant": true
    },
    {
      "inputs": [
        {
          "internalType": "string",
          "name": "_hhNumber",
          "type": "string"
        }
      ],
      "name": "getDiagnosticDetails",
      "outputs": [
        {
          "internalType": "address",
          "name": "_walletAddress",
          "type": "address"
        },
        {
          "internalType": "string",
          "name": "_diagnosticName",
          "type": "string"
        },
        {
          "internalType": "string",
          "name": "_hospitalName",
          "type": "string"
        },
        {
          "internalType": "string",
          "name": "_diagnosticLocation",
          "type": "string"
        },
        {
          "internalType": "string",
          "name": "_email",
          "type": "string"
        }
      ],
      "stateMutability": "view",
      "type": "function",
      "constant": true
    },
    {
      "inputs": [
        {
          "internalType": "string",
          "name": "_hhNumber",
          "type": "string"
        },
        {
          "internalType": "string",
          "name": "_password",
          "type": "string"
        }
      ],
      "name": "validatePassword",
      "outputs": [
        {
          "internalType": "bool",
          "name": "",
          "type": "bool"
        }
      ],
      "stateMutability": "view",
      "type": "function",
      "constant": true
    },
    {
      "inputs": [],
      "name": "getAllDiagnostics",
      "outputs": [
        {
          "components": [
            {
              "internalType": "address",
              "name": "walletAddress",
              "type": "address"
            },
            {
              "internalType": "string",
              "name": "diagnosticName",
              "type": "string"
            },
            {
              "internalType": "string",
              "name": "hospitalName",
              "type": "string"
            },
            {
              "internalType": "string",
              "name": "diagnosticLocation",
              "type": "string"
            },
            {
              "internalType": "string",
              "name": "email",
              "type": "string"
            },
            {
              "internalType": "string",
              "name": "hhNumber",
              "type": "string"
            },
            {
              "internalType": "string",
              "name": "password",
              "type": "string"
            }
          ],
          "internalType": "struct DiagnosticRegistration.Diagnostic[]",
          "name": "",
          "type": "tuple[]"
        }
      ],
      "stateMutability": "view",
      "type": "function",
      "constant": true
    },
    {
      "inputs": [
        {
          "internalType": "string",
          "name": "_hhNumber",
          "type": "string"
        }
      ],
      "name": "getDiagnostic",
      "outputs": [
        {
          "components": [
            {
              "internalType": "address",
              "name": "walletAddress",
              "type": "address"
            },
            {
              "internalType": "string",
              "name": "diagnosticName",
              "type": "string"
            },
            {
              "internalType": "string",
              "name": "hospitalName",
              "type": "string"
            },
            {
              "internalType": "string",
              "name": "diagnosticLocation",
              "type": "string"
            },
            {
              "internalType": "string",
              "name": "email",
              "type": "string"
            },
            {
              "internalType": "string",
              "name": "hhNumber",
              "type": "string"
            },
            {
              "internalType": "string",
              "name": "password",
              "type": "string"
            }
          ],
          "internalType": "struct DiagnosticRegistration.Diagnostic",
          "name": "",
          "type": "tuple"
        }
      ],
      "stateMutability": "view",
      "type": "function",
      "constant": true
    },
    {
      "inputs": [],
      "name": "getNextDiagnosticHH",
      "outputs": [
        {
          "internalType": "string",
          "name": "",
          "type": "string"
        }
      ],
      "stateMutability": "view",
      "type": "function",
      "constant": true
    }
  ],
  "bytecode": "0x6080604052600160005534801561001557600080fd5b50612480806100256000396000f3fe608060405234801561001057600080fd5b506004361061007d5760003560e01c806370419cc81161005b57806370419cc8146101045780637babdb2614610122578063cf9ff02214610152578063d9104df4146101825761007d565b806316019ce21461008257806325b4c9c7146100b25780636d2ec0c9146100e6575b600080fd5b61009c60048036038101906100979190611798565b61019e565b6040516100a99190611960565b60405180910390f35b6100cc60048036038101906100c79190611798565b610645565b6040516100dd9594939291906119db565b60405180910390f35b6100ee610b16565b6040516100fb9190611a4a565b60405180910390f35b61010c610b3b565b6040516101199190611bed565b60405180910390f35b61013c60048036038101906101379190611c0f565b610feb565b6040516101499190611ca2565b60405180910390f35b61016c60048036038101906101679190611798565b611110565b6040516101799190611ca2565b60405180910390f35b61019c60048036038101906101979190611cbd565b611187565b005b6101a66115eb565b600073ffffffffffffffffffffffffffffffffffffffff166001836040516101ce9190611e00565b908152602001604051809103902060009054906101000a900473ffffffffffffffffffffffffffffffffffffffff1673ffffffffffffffffffffffffffffffffffffffff1603610253576040517f08c379a000000000000000000000000000000000000000000000000000000000815260040161024a90611e63565b60405180910390fd5b6002826040516102639190611e00565b90815260200160405180910390206040518060e00160405290816000820160009054906101000a900473ffffffffffffffffffffffffffffffffffffffff1673ffffffffffffffffffffffffffffffffffffffff1673ffffffffffffffffffffffffffffffffffffffff1681526020016001820180546102e290611eb2565b80601f016020809104026020016040519081016040528092919081815260200182805461030e90611eb2565b801561035b5780601f106103305761010080835404028352916020019161035b565b820191906000526020600020905b81548152906001019060200180831161033e57829003601f168201915b5050505050815260200160028201805461037490611eb2565b80601f01602080910402602001604051908101604052809291908181526020018280546103a090611eb2565b80156103ed5780601f106103c2576101008083540402835291602001916103ed565b820191906000526020600020905b8154815290600101906020018083116103d057829003601f168201915b5050505050815260200160038201805461040690611eb2565b80601f016020809104026020016040519081016040528092919081815260200182805461043290611eb2565b801561047f5780601f106104545761010080835404028352916020019161047f565b820191906000526020600020905b81548152906001019060200180831161046257829003601f168201915b5050505050815260200160048201805461049890611eb2565b80601f01602080910402602001604051908101604052809291908181526020018280546104c490611eb2565b80156105115780601f106104e657610100808354040283529160200191610511565b820191906000526020600020905b8154815290600101906020018083116104f457829003601f168201915b5050505050815260200160058201805461052a90611eb2565b80601f016020809104026020016040519081016040528092919081815260200182805461055690611eb2565b80156105a35780601f10610578576101008083540402835291602001916105a3565b820191906000526020600020905b81548152906001019060200180831161058657829003601f168201915b505050505081526020016006820180546105bc90611eb2565b80601f01602080910402602001604051908101604052809291908181526020018280546105e890611eb2565b80156106355780601f1061060a57610100808354040283529160200191610635565b820191906000526020600020905b81548152906001019060200180831161061857829003601f168201915b5050505050815250509050919050565b6000606080606080600073ffffffffffffffffffffffffffffffffffffffff166001876040516106759190611e00565b908152602001604051809103902060009054906101000a900473ffffffffffffffffffffffffffffffffffffffff1673ffffffffffffffffffffffffffffffffffffffff16036106fa576040517f08c379a00000000000000000000000000000000000000000000000000000000081526004016106f190611e63565b60405180910390fd5b600060028760405161070c9190611e00565b90815260200160405180910390206040518060e00160405290816000820160009054906101000a900473ffffffffffffffffffffffffffffffffffffffff1673ffffffffffffffffffffffffffffffffffffffff1673ffffffffffffffffffffffffffffffffffffffff16815260200160018201805461078b90611eb2565b80601f01602080910402602001604051908101604052809291908181526020018280546107b790611eb2565b80156108045780601f106107d957610100808354040283529160200191610804565b820191906000526020600020905b8154815290600101906020018083116107e757829003601f168201915b5050505050815260200160028201805461081d90611eb2565b80601f016020809104026020016040519081016040528092919081815260200182805461084990611eb2565b80156108965780601f1061086b57610100808354040283529160200191610896565b820191906000526020600020905b81548152906001019060200180831161087957829003601f168201915b505050505081526020016003820180546108af90611eb2565b80601f01602080910402602001604051908101604052809291908181526020018280546108db90611eb2565b80156109285780601f106108fd57610100808354040283529160200191610928565b820191906000526020600020905b81548152906001019060200180831161090b57829003601f168201915b5050505050815260200160048201805461094190611eb2565b80601f016020809104026020016040519081016040528092919081815260200182805461096d90611eb2565b80156109ba5780601f1061098f576101008083540402835291602001916109ba565b820191906000526020600020905b81548152906001019060200180831161099d57829003601f168201915b505050505081526020016005820180546109d390611eb2565b80601f01602080910402602001604051908101604052809291908181526020018280546109ff90611eb2565b8015610a4c5780601f10610a2157610100808354040283529160200191610a4c565b820191906000526020600020905b815481529060010190602001808311610a2f57829003601f168201915b50505050508152602001600682018054610a6590611eb2565b80601f0160208091040260200160405190810160405280929190818152602001828054610a9190611eb2565b8015610ade5780601f10610ab357610100808354040283529160200191610ade565b820191906000526020600020905b815481529060010190602001808311610ac157829003601f168201915b505050505081525050905080600001518160200151826040015183606001518460800151955095509550955095505091939590929450565b606060008054620bbfd0610b2a9190611f1c565b9050610b3581611450565b91505090565b6060600060038054905067ffffffffffffffff811115610b5e57610b5d61166d565b5b604051908082528060200260200182016040528015610b9757816020015b610b846115eb565b815260200190600190039081610b7c5790505b50905060005b600380549050811015610fe357600260038281548110610bc057610bbf611f50565b5b90600052602060002001604051610bd79190612017565b90815260200160405180910390206040518060e00160405290816000820160009054906101000a900473ffffffffffffffffffffffffffffffffffffffff1673ffffffffffffffffffffffffffffffffffffffff1673ffffffffffffffffffffffffffffffffffffffff168152602001600182018054610c5690611eb2565b80601f0160208091040260200160405190810160405280929190818152602001828054610c8290611eb2565b8015610ccf5780601f10610ca457610100808354040283529160200191610ccf565b820191906000526020600020905b815481529060010190602001808311610cb257829003601f168201915b50505050508152602001600282018054610ce890611eb2565b80601f0160208091040260200160405190810160405280929190818152602001828054610d1490611eb2565b8015610d615780601f10610d3657610100808354040283529160200191610d61565b820191906000526020600020905b815481529060010190602001808311610d4457829003601f168201915b50505050508152602001600382018054610d7a90611eb2565b80601f0160208091040260200160405190810160405280929190818152602001828054610da690611eb2565b8015610df35780601f10610dc857610100808354040283529160200191610df3565b820191906000526020600020905b815481529060010190602001808311610dd657829003601f168201915b50505050508152602001600482018054610e0c90611eb2565b80601f0160208091040260200160405190810160405280929190818152602001828054610e3890611eb2565b8015610e855780601f10610e5a57610100808354040283529160200191610e85565b820191906000526020600020905b815481529060010190602001808311610e6857829003601f168201915b50505050508152602001600582018054610e9e90611eb2565b80601f0160208091040260200160405190810160405280929190818152602001828054610eca90611eb2565b8015610f175780601f10610eec57610100808354040283529160200191610f17565b820191906000526020600020905b815481529060010190602001808311610efa57829003601f168201915b50505050508152602001600682018054610f3090611eb2565b80601f0160208091040260200160405190810160405280929190818152602001828054610f5c90611eb2565b8015610fa95780601f10610f7e57610100808354040283529160200191610fa9565b820191906000526020600020905b815481529060010190602001808311610f8c57829003601f168201915b505050505081525050828281518110610fc557610fc4611f50565b5b60200260200101819052508080610fdb9061202e565b915050610b9d565b508091505090565b60008073ffffffffffffffffffffffffffffffffffffffff166001846040516110149190611e00565b908152602001604051809103902060009054906101000a900473ffffffffffffffffffffffffffffffffffffffff1673ffffffffffffffffffffffffffffffffffffffff1603611099576040517f08c379a000000000000000000000000000000000000000000000000000000000815260040161109090611e63565b60405180910390fd5b6002836040516110a99190611e00565b90815260200160405180910390206006016040516020016110ca9190612017565b60405160208183030381529060405280519060200120826040516020016110f19190611e00565b6040516020818303038152906040528051906020012014905092915050565b60008073ffffffffffffffffffffffffffffffffffffffff166001836040516111399190611e00565b908152602001604051809103902060009054906101000a900473ffffffffffffffffffffffffffffffffffffffff1673ffffffffffffffffffffffffffffffffffffffff1614159050919050565b60006111916115af565b9050600073ffffffffffffffffffffffffffffffffffffffff166001826040516111bb9190611e00565b908152602001604051809103902060009054906101000a900473ffffffffffffffffffffffffffffffffffffffff1673ffffffffffffffffffffffffffffffffffffffff1614611240576040517f08c379a0000000000000000000000000000000000000000000000000000000008152600401611237906120c2565b60405180910390fd5b60006040518060e001604052803373ffffffffffffffffffffffffffffffffffffffff1681526020018881526020018781526020018681526020018581526020018381526020018481525090508060028360405161129e9190611e00565b908152602001604051809103902060008201518160000160006101000a81548173ffffffffffffffffffffffffffffffffffffffff021916908373ffffffffffffffffffffffffffffffffffffffff16021790555060208201518160010190816113089190612279565b50604082015181600201908161131e9190612279565b5060608201518160030190816113349190612279565b50608082015181600401908161134a9190612279565b5060a08201518160050190816113609190612279565b5060c08201518160060190816113769190612279565b509050503360018360405161138b9190611e00565b908152602001604051809103902060006101000a81548173ffffffffffffffffffffffffffffffffffffffff021916908373ffffffffffffffffffffffffffffffffffffffff16021790555060038290806001815401808255809150506001900390600052602060002001600090919091909150908161140b9190612279565b507f018b729007b12778ed503e400556113a91191a1cd9f17a22387db8e25fa67d5582883360405161143f9392919061234b565b60405180910390a150505050505050565b606060008203611497576040518060400160405280600181526020017f300000000000000000000000000000000000000000000000000000000000000081525090506115aa565b600082905060005b600082146114c95780806114b29061202e565b915050600a826114c291906123bf565b915061149f565b60008167ffffffffffffffff8111156114e5576114e461166d565b5b6040519080825280601f01601f1916602001820160405280156115175781602001600182028036833780820191505090505b5090505b600085146115a357818061152e906123f0565b925050600a8561153e9190612419565b603061154a9190611f1c565b60f81b8183815181106115605761155f611f50565b5b60200101907effffffffffffffffffffffffffffffffffffffffffffffffffffffffffffff1916908160001a905350600a8561159c91906123bf565b945061151b565b8093505050505b919050565b606060008054620bbfd06115c39190611f1c565b90506000808154809291906115d79061202e565b91905055506115e581611450565b91505090565b6040518060e00160405280600073ffffffffffffffffffffffffffffffffffffffff1681526020016060815260200160608152602001606081526020016060815260200160608152602001606081525090565b6000604051905090565b600080fd5b600080fd5b600080fd5b600080fd5b6000601f19601f8301169050919050565b7f4e487b7100000000000000000000000000000000000000000000000000000000600052604160045260246000fd5b6116a58261165c565b810181811067ffffffffffffffff821117156116c4576116c361166d565b5b80604052505050565b60006116d761163e565b90506116e3828261169c565b919050565b600067ffffffffffffffff8211156117035761170261166d565b5b61170c8261165c565b9050602081019050919050565b82818337600083830152505050565b600061173b611736846116e8565b6116cd565b90508281526020810184848401111561175757611756611657565b5b611762848285611719565b509392505050565b600082601f83011261177f5761177e611652565b5b813561178f848260208601611728565b91505092915050565b6000602082840312156117ae576117ad611648565b5b600082013567ffffffffffffffff8111156117cc576117cb61164d565b5b6117d88482850161176a565b91505092915050565b600073ffffffffffffffffffffffffffffffffffffffff82169050919050565b600061180c826117e1565b9050919050565b61181c81611801565b82525050565b600081519050919050565b600082825260208201905092915050565b60005b8381101561185c578082015181840152602081019050611841565b60008484015250505050565b600061187382611822565b61187d818561182d565b935061188d81856020860161183e565b6118968161165c565b840191505092915050565b600060e0830160008301516118b96000860182611813565b50602083015184820360208601526118d18282611868565b915050604083015184820360408601526118eb8282611868565b915050606083015184820360608601526119058282611868565b9150506080830151848203608086015261191f8282611868565b91505060a083015184820360a08601526119398282611868565b91505060c083015184820360c08601526119538282611868565b9150508091505092915050565b6000602082019050818103600083015261197a81846118a1565b905092915050565b61198b81611801565b82525050565b600082825260208201905092915050565b60006119ad82611822565b6119b78185611991565b93506119c781856020860161183e565b6119d08161165c565b840191505092915050565b600060a0820190506119f06000830188611982565b8181036020830152611a0281876119a2565b90508181036040830152611a1681866119a2565b90508181036060830152611a2a81856119a2565b90508181036080830152611a3e81846119a2565b90509695505050505050565b60006020820190508181036000830152611a6481846119a2565b905092915050565b600081519050919050565b600082825260208201905092915050565b6000819050602082019050919050565b600060e083016000830151611ab06000860182611813565b5060208301518482036020860152611ac88282611868565b91505060408301518482036040860152611ae28282611868565b91505060608301518482036060860152611afc8282611868565b91505060808301518482036080860152611b168282611868565b91505060a083015184820360a0860152611b308282611868565b91505060c083015184820360c0860152611b4a8282611868565b9150508091505092915050565b6000611b638383611a98565b905092915050565b6000602082019050919050565b6000611b8382611a6c565b611b8d8185611a77565b935083602082028501611b9f85611a88565b8060005b85811015611bdb5784840389528151611bbc8582611b57565b9450611bc783611b6b565b925060208a01995050600181019050611ba3565b50829750879550505050505092915050565b60006020820190508181036000830152611c078184611b78565b905092915050565b60008060408385031215611c2657611c25611648565b5b600083013567ffffffffffffffff811115611c4457611c4361164d565b5b611c508582860161176a565b925050602083013567ffffffffffffffff811115611c7157611c7061164d565b5b611c7d8582860161176a565b9150509250929050565b60008115159050919050565b611c9c81611c87565b82525050565b6000602082019050611cb76000830184611c93565b92915050565b600080600080600060a08688031215611cd957611cd8611648565b5b600086013567ffffffffffffffff811115611cf757611cf661164d565b5b611d038882890161176a565b955050602086013567ffffffffffffffff811115611d2457611d2361164d565b5b611d308882890161176a565b945050604086013567ffffffffffffffff811115611d5157611d5061164d565b5b611d5d8882890161176a565b935050606086013567ffffffffffffffff811115611d7e57611d7d61164d565b5b611d8a8882890161176a565b925050608086013567ffffffffffffffff811115611dab57611daa61164d565b5b611db78882890161176a565b9150509295509295909350565b600081905092915050565b6000611dda82611822565b611de48185611dc4565b9350611df481856020860161183e565b80840191505092915050565b6000611e0c8284611dcf565b915081905092915050565b7f446961676e6f73746963206e6f74207265676973746572656400000000000000600082015250565b6000611e4d601983611991565b9150611e5882611e17565b602082019050919050565b60006020820190508181036000830152611e7c81611e40565b9050919050565b7f4e487b7100000000000000000000000000000000000000000000000000000000600052602260045260246000fd5b60006002820490506001821680611eca57607f821691505b602082108103611edd57611edc611e83565b5b50919050565b6000819050919050565b7f4e487b7100000000000000000000000000000000000000000000000000000000600052601160045260246000fd5b6000611f2782611ee3565b9150611f3283611ee3565b9250828201905080821115611f4a57611f49611eed565b5b92915050565b7f4e487b7100000000000000000000000000000000000000000000000000000000600052603260045260246000fd5b60008190508160005260206000209050919050565b60008154611fa181611eb2565b611fab8186611dc4565b94506001821660008114611fc65760018114611fdb5761200e565b60ff198316865281151582028601935061200e565b611fe485611f7f565b60005b8381101561200657815481890152600182019150602081019050611fe7565b838801955050505b50505092915050565b60006120238284611f94565b915081905092915050565b600061203982611ee3565b91507fffffffffffffffffffffffffffffffffffffffffffffffffffffffffffffffff820361206b5761206a611eed565b5b600182019050919050565b7f446961676e6f7374696320616c72656164792072656769737465726564000000600082015250565b60006120ac601d83611991565b91506120b782612076565b602082019050919050565b600060208201905081810360008301526120db8161209f565b9050919050565b60006020601f8301049050919050565b600082821b905092915050565b60006008830261212f7fffffffffffffffffffffffffffffffffffffffffffffffffffffffffffffffff826120f2565b61213986836120f2565b95508019841693508086168417925050509392505050565b6000819050919050565b600061217661217161216c84611ee3565b612151565b611ee3565b9050919050565b6000819050919050565b6121908361215b565b6121a461219c8261217d565b8484546120ff565b825550505050565b600090565b6121b96121ac565b6121c4818484612187565b505050565b5b818110156121e8576121dd6000826121b1565b6001810190506121ca565b5050565b601f82111561222d576121fe81611f7f565b612207846120e2565b81016020851015612216578190505b61222a612222856120e2565b8301826121c9565b50505b505050565b600082821c905092915050565b600061225060001984600802612232565b1980831691505092915050565b6000612269838361223f565b9150826002028217905092915050565b61228282611822565b67ffffffffffffffff81111561229b5761229a61166d565b5b6122a58254611eb2565b6122b08282856121ec565b600060209050601f8311600181146122e357600084156122d1578287015190505b6122db858261225d565b865550612343565b601f1984166122f186611f7f565b60005b82811015612319578489015182556001820191506020850194506020810190506122f4565b868310156123365784890151612332601f89168261223f565b8355505b6001600288020188555050505b505050505050565b6000606082019050818103600083015261236581866119a2565b9050818103602083015261237981856119a2565b90506123886040830184611982565b949350505050565b7f4e487b7100000000000000000000000000000000000000000000000000000000600052601260045260246000fd5b60006123ca82611ee3565b91506123d583611ee3565b9250826123e5576123e4612390565b5b828204905092915050565b60006123fb82611ee3565b91506000820361240e5761240d611eed565b5b600182039050919050565b600061242482611ee3565b915061242f83611ee3565b92508261243f5761243e612390565b5b82820690509291505056fea264697066735822122036e278acd1fc149d2395d8f354f90cbb87b8b79e93187151fa1d2eb22becb5b464736f6c63430008130033",
  "immutableReferences": {},
  "source": "// SPDX-License-Identifier: MIT\r\npragma solidity ^0.8.19;\r\n\r\ncontract DiagnosticRegistration {\r\n    struct Diagnostic {\r\n        address walletAddress;\r\n        string diagnosticName;\r\n        string hospitalName;\r\n        string diagnosticLocation;\r\n        string email;\r\n        string hhNumber;\r\n        string password;\r\n    }\r\n\r\n    uint256 private diagnosticCounter = 1;\r\n\r\n    mapping(string => address) private diagnosticAddresses;\r\n    mapping(string => Diagnostic) private diagnostics;\r\n    string[] private allDiagnostics;   // ✅ keep track of registered hhNumbers\r\n\r\n    event DiagnosticRegistered(string hhNumber, string diagnosticName, address walletAddress);\r\n\r\n    function registerDiagnostic(\r\n        string memory _diagnosticName,\r\n        string memory _hospitalName,\r\n        string memory _diagnosticLocation,\r\n        string memory _email,\r\n        string memory _password\r\n    ) external {\r\n        string memory hhNumber = _generateDiagnosticHH();\r\n        require(diagnosticAddresses[hhNumber] == address(0), \"Diagnostic already registered\");\r\n\r\n        Diagnostic memory newDiagnostic = Diagnostic({\r\n            walletAddress: msg.sender,\r\n            diagnosticName: _diagnosticName,\r\n            hospitalName: _hospitalName,\r\n            diagnosticLocation: _diagnosticLocation,\r\n            email: _email,\r\n            hhNumber: hhNumber,\r\n            password: _password\r\n        });\r\n\r\n        diagnostics[hhNumber] = newDiagnostic;\r\n        diagnosticAddresses[hhNumber] = msg.sender;\r\n        allDiagnostics.push(hhNumber);   // ✅ store hhNumber in array\r\n\r\n        emit DiagnosticRegistered(hhNumber, _diagnosticName, msg.sender);\r\n    }\r\n\r\n    function isRegisteredDiagnostic(string memory _hhNumber) external view returns (bool) {\r\n        return diagnosticAddresses[_hhNumber] != address(0);\r\n    }\r\n\r\n    function getDiagnosticDetails(string memory _hhNumber) external view returns (\r\n        address _walletAddress,\r\n        string memory _diagnosticName,\r\n        string memory _hospitalName,\r\n        string memory _diagnosticLocation,\r\n        string memory _email\r\n    ) {\r\n        require(diagnosticAddresses[_hhNumber] != address(0), \"Diagnostic not registered\");\r\n        Diagnostic memory diagnostic = diagnostics[_hhNumber];\r\n        return (\r\n            diagnostic.walletAddress,\r\n            diagnostic.diagnosticName,\r\n            diagnostic.hospitalName,\r\n            diagnostic.diagnosticLocation,\r\n            diagnostic.email\r\n        );\r\n    }\r\n\r\n    function validatePassword(string memory _hhNumber, string memory _password) external view returns (bool) {\r\n        require(diagnosticAddresses[_hhNumber] != address(0), \"Diagnostic not registered\");\r\n        return keccak256(abi.encodePacked(_password)) == keccak256(abi.encodePacked(diagnostics[_hhNumber].password));\r\n    }\r\n\r\n    function getAllDiagnostics() external view returns (Diagnostic[] memory) {\r\n        Diagnostic[] memory list = new Diagnostic[](allDiagnostics.length);\r\n        for (uint i = 0; i < allDiagnostics.length; i++) {\r\n            list[i] = diagnostics[allDiagnostics[i]];\r\n        }\r\n        return list;\r\n    }\r\n\r\n    // fetch one diagnostic by hhNumber\r\n    function getDiagnostic(string memory _hhNumber) external view returns (Diagnostic memory) {\r\n        require(diagnosticAddresses[_hhNumber] != address(0), \"Diagnostic not registered\");\r\n        return diagnostics[_hhNumber];\r\n    }\r\n    function _generateDiagnosticHH() internal returns (string memory) {\r\n        uint256 hh = 770000 + diagnosticCounter;\r\n        diagnosticCounter++;\r\n        return _uintToString(hh);\r\n    }\r\n\r\n    function _uintToString(uint256 value) internal pure returns (string memory) {\r\n        if (value == 0) return \"0\";\r\n        uint256 temp = value;\r\n        uint256 digits;\r\n        while (temp != 0) { digits++; temp /= 10; }\r\n        bytes memory buffer = new bytes(digits);\r\n        while (value != 0) {\r\n            digits--;\r\n            buffer[digits] = bytes1(uint8(48 + value % 10));\r\n            value /= 10;\r\n        }\r\n        return string(buffer);\r\n    }\r\n    function getNextDiagnosticHH() external view returns (string memory) {\r\n    uint256 nextHH = 770000 + diagnosticCounter;\r\n    return _uintToString(nextHH);\r\n}\r\n}\r\n",
  "sourcePath": "C:\\Users\\santh\\Secure Electronic Records\\src\\contracts\\DiagnosticRegistration.sol",
  "compiler": {
    "name": "solc",
    "version": "0.8.19+commit.7dd6d404.Emscripten.clang"
  },
  "schemaVersion": "3.4.16",
  "updatedAt": "2026-01-24T07:02:04.816Z",
  "networkType": "ethereum",
  "devdoc": {
    "kind": "dev",
    "methods": {},
    "version": 1
  },
  "userdoc": {
    "kind": "user",
    "methods": {},
    "version": 1
  }
}