{
  "contractName": "DoctorRegistration",
  "abi": [
    {
      "anonymous": false,
      "inputs": [
        {
          "indexed": false,
          "internalType": "string",
          "name": "hhNumber",
          "type": "string"
        },
        {
          "indexed": false,
          "internalType": "string",
          "name": "doctorName",
          "type": "string"
        },
        {
          "indexed": false,
          "internalType": "address",
          "name": "walletAddress",
          "type": "address"
        }
      ],
      "name": "DoctorRegistered",
      "type": "event"
    },
    {
      "inputs": [
        {
          "internalType": "string",
          "name": "",
          "type": "string"
        },
        {
          "internalType": "address",
          "name": "",
          "type": "address"
        }
      ],
      "name": "doctorPermissions",
      "outputs": [
        {
          "internalType": "bool",
          "name": "",
          "type": "bool"
        }
      ],
      "stateMutability": "view",
      "type": "function",
      "constant": true
    },
    {
      "inputs": [
        {
          "internalType": "string",
          "name": "_doctorName",
          "type": "string"
        },
        {
          "internalType": "string",
          "name": "_hospitalName",
          "type": "string"
        },
        {
          "internalType": "string",
          "name": "_dateOfBirth",
          "type": "string"
        },
        {
          "internalType": "string",
          "name": "_gender",
          "type": "string"
        },
        {
          "internalType": "string",
          "name": "_email",
          "type": "string"
        },
        {
          "internalType": "string",
          "name": "_specialization",
          "type": "string"
        },
        {
          "internalType": "string",
          "name": "_department",
          "type": "string"
        },
        {
          "internalType": "string",
          "name": "_designation",
          "type": "string"
        },
        {
          "internalType": "string",
          "name": "_workExperience",
          "type": "string"
        },
        {
          "internalType": "string",
          "name": "_password",
          "type": "string"
        }
      ],
      "name": "registerDoctor",
      "outputs": [],
      "stateMutability": "nonpayable",
      "type": "function"
    },
    {
      "inputs": [
        {
          "internalType": "string",
          "name": "_hhNumber",
          "type": "string"
        }
      ],
      "name": "isRegisteredDoctor",
      "outputs": [
        {
          "internalType": "bool",
          "name": "",
          "type": "bool"
        }
      ],
      "stateMutability": "view",
      "type": "function",
      "constant": true
    },
    {
      "inputs": [
        {
          "internalType": "string",
          "name": "_hhNumber",
          "type": "string"
        }
      ],
      "name": "getDoctorDetails",
      "outputs": [
        {
          "internalType": "address",
          "name": "_walletAddress",
          "type": "address"
        },
        {
          "internalType": "string",
          "name": "_doctorName",
          "type": "string"
        },
        {
          "internalType": "string",
          "name": "_hospitalName",
          "type": "string"
        },
        {
          "internalType": "string",
          "name": "_dateOfBirth",
          "type": "string"
        },
        {
          "internalType": "string",
          "name": "_gender",
          "type": "string"
        },
        {
          "internalType": "string",
          "name": "_email",
          "type": "string"
        },
        {
          "internalType": "string",
          "name": "_specialization",
          "type": "string"
        },
        {
          "internalType": "string",
          "name": "_department",
          "type": "string"
        },
        {
          "internalType": "string",
          "name": "_designation",
          "type": "string"
        },
        {
          "internalType": "string",
          "name": "_workExperience",
          "type": "string"
        }
      ],
      "stateMutability": "view",
      "type": "function",
      "constant": true
    },
    {
      "inputs": [
        {
          "internalType": "address",
          "name": "_doctorAddress",
          "type": "address"
        }
      ],
      "name": "getDoctorDetailsByAddress",
      "outputs": [
        {
          "internalType": "address",
          "name": "_walletAddress",
          "type": "address"
        },
        {
          "internalType": "string",
          "name": "_doctorName",
          "type": "string"
        },
        {
          "internalType": "string",
          "name": "_hospitalName",
          "type": "string"
        },
        {
          "internalType": "string",
          "name": "_dateOfBirth",
          "type": "string"
        },
        {
          "internalType": "string",
          "name": "_gender",
          "type": "string"
        },
        {
          "internalType": "string",
          "name": "_email",
          "type": "string"
        },
        {
          "internalType": "string",
          "name": "_hhNumber",
          "type": "string"
        },
        {
          "internalType": "string",
          "name": "_specialization",
          "type": "string"
        },
        {
          "internalType": "string",
          "name": "_department",
          "type": "string"
        },
        {
          "internalType": "string",
          "name": "_designation",
          "type": "string"
        },
        {
          "internalType": "string",
          "name": "_workExperience",
          "type": "string"
        }
      ],
      "stateMutability": "view",
      "type": "function",
      "constant": true
    },
    {
      "inputs": [
        {
          "internalType": "string",
          "name": "_hhNumber",
          "type": "string"
        },
        {
          "internalType": "string",
          "name": "_password",
          "type": "string"
        }
      ],
      "name": "validatePassword",
      "outputs": [
        {
          "internalType": "bool",
          "name": "",
          "type": "bool"
        }
      ],
      "stateMutability": "view",
      "type": "function",
      "constant": true
    },
    {
      "inputs": [
        {
          "internalType": "string",
          "name": "_patientNumber",
          "type": "string"
        },
        {
          "internalType": "address",
          "name": "_doctorAddress",
          "type": "address"
        },
        {
          "internalType": "string",
          "name": "_patientName",
          "type": "string"
        }
      ],
      "name": "grantPermission",
      "outputs": [],
      "stateMutability": "nonpayable",
      "type": "function"
    },
    {
      "inputs": [
        {
          "internalType": "string",
          "name": "_patientNumber",
          "type": "string"
        },
        {
          "internalType": "address",
          "name": "_doctorAddress",
          "type": "address"
        }
      ],
      "name": "isPermissionGranted",
      "outputs": [
        {
          "internalType": "bool",
          "name": "",
          "type": "bool"
        }
      ],
      "stateMutability": "view",
      "type": "function",
      "constant": true
    },
    {
      "inputs": [
        {
          "internalType": "string",
          "name": "_patientNumber",
          "type": "string"
        },
        {
          "internalType": "address",
          "name": "_doctorAddress",
          "type": "address"
        }
      ],
      "name": "revokePermission",
      "outputs": [],
      "stateMutability": "nonpayable",
      "type": "function"
    },
    {
      "inputs": [
        {
          "internalType": "address",
          "name": "_doctorAddress",
          "type": "address"
        }
      ],
      "name": "getPatientList",
      "outputs": [
        {
          "components": [
            {
              "internalType": "string",
              "name": "patient_number",
              "type": "string"
            },
            {
              "internalType": "string",
              "name": "patient_name",
              "type": "string"
            }
          ],
          "internalType": "struct DoctorRegistration.PatientList[]",
          "name": "",
          "type": "tuple[]"
        }
      ],
      "stateMutability": "view",
      "type": "function",
      "constant": true
    },
    {
      "inputs": [],
      "name": "getAllDoctors",
      "outputs": [
        {
          "components": [
            {
              "internalType": "address",
              "name": "walletAddress",
              "type": "address"
            },
            {
              "internalType": "string",
              "name": "doctorName",
              "type": "string"
            },
            {
              "internalType": "string",
              "name": "hospitalName",
              "type": "string"
            },
            {
              "internalType": "string",
              "name": "dateOfBirth",
              "type": "string"
            },
            {
              "internalType": "string",
              "name": "gender",
              "type": "string"
            },
            {
              "internalType": "string",
              "name": "email",
              "type": "string"
            },
            {
              "internalType": "string",
              "name": "hhNumber",
              "type": "string"
            },
            {
              "internalType": "string",
              "name": "specialization",
              "type": "string"
            },
            {
              "internalType": "string",
              "name": "department",
              "type": "string"
            },
            {
              "internalType": "string",
              "name": "designation",
              "type": "string"
            },
            {
              "internalType": "string",
              "name": "workExperience",
              "type": "string"
            },
            {
              "internalType": "string",
              "name": "password",
              "type": "string"
            }
          ],
          "internalType": "struct DoctorRegistration.Doctor[]",
          "name": "",
          "type": "tuple[]"
        }
      ],
      "stateMutability": "view",
      "type": "function",
      "constant": true
    },
    {
      "inputs": [],
      "name": "getNextDoctorHH",
      "outputs": [
        {
          "internalType": "string",
          "name": "",
          "type": "string"
        }
      ],
      "stateMutability": "view",
      "type": "function",
      "constant": true
    }
  ],
  "bytecode": "0x6080604052600160005534801561001557600080fd5b5061405d806100256000396000f3fe608060405234801561001057600080fd5b50600436106100b45760003560e01c8063924d500811610071578063924d5008146101b25780639c911309146101e2578063a46bef1514610212578063a75f831a14610242578063d894c4581461025e578063f0d950901461028e576100b4565b8063273b5a0b146100b957806327d5ab8a146100d55780633e7697671461010f57806342e8ce2a146101485780637babdb26146101645780637d3285af14610194575b600080fd5b6100d360048036038101906100ce9190612ccf565b6102ac565b005b6100ef60048036038101906100ea9190612d5a565b610462565b6040516101069b9a99989796959493929190612e15565b60405180910390f35b61012960048036038101906101249190612f06565b610c4a565b60405161013f9a99989796959493929190612f4f565b60405180910390f35b610162600480360381019061015d919061302a565b611428565b005b61017e60048036038101906101799190613086565b611679565b60405161018b9190613119565b60405180910390f35b61019c61179e565b6040516101a99190613134565b60405180910390f35b6101cc60048036038101906101c7919061302a565b6117c3565b6040516101d99190613119565b60405180910390f35b6101fc60048036038101906101f79190612d5a565b611808565b60405161020991906132a6565b60405180910390f35b61022c60048036038101906102279190612f06565b6119ca565b6040516102399190613119565b60405180910390f35b61025c600480360381019061025791906132c8565b611a41565b005b6102786004803603810190610273919061302a565b612068565b6040516102859190613119565b60405180910390f35b6102966120db565b6040516102a391906136da565b60405180910390f35b600660008373ffffffffffffffffffffffffffffffffffffffff1673ffffffffffffffffffffffffffffffffffffffff16815260200190815260200160002060009054906101000a900460ff16610338576040517f08c379a000000000000000000000000000000000000000000000000000000000815260040161032f90613748565b60405180910390fd5b60006040518060400160405280858152602001838152509050600460008473ffffffffffffffffffffffffffffffffffffffff1673ffffffffffffffffffffffffffffffffffffffff16815260200190815260200160002081908060018154018082558091505060019003906000526020600020906002020160009091909190915060008201518160000190816103cf919061397e565b5060208201518160010190816103e5919061397e565b50505060016005856040516103fa9190613a8c565b908152602001604051809103902060008573ffffffffffffffffffffffffffffffffffffffff1673ffffffffffffffffffffffffffffffffffffffff16815260200190815260200160002060006101000a81548160ff02191690831515021790555050505050565b6000606080606080606080606080606080600660008d73ffffffffffffffffffffffffffffffffffffffff1673ffffffffffffffffffffffffffffffffffffffff16815260200190815260200160002060009054906101000a900460ff166104ff576040517f08c379a00000000000000000000000000000000000000000000000000000000081526004016104f690613aef565b60405180910390fd5b6000600360008e73ffffffffffffffffffffffffffffffffffffffff1673ffffffffffffffffffffffffffffffffffffffff168152602001908152602001600020604051806101800160405290816000820160009054906101000a900473ffffffffffffffffffffffffffffffffffffffff1673ffffffffffffffffffffffffffffffffffffffff1673ffffffffffffffffffffffffffffffffffffffff1681526020016001820180546105b290613797565b80601f01602080910402602001604051908101604052809291908181526020018280546105de90613797565b801561062b5780601f106106005761010080835404028352916020019161062b565b820191906000526020600020905b81548152906001019060200180831161060e57829003601f168201915b5050505050815260200160028201805461064490613797565b80601f016020809104026020016040519081016040528092919081815260200182805461067090613797565b80156106bd5780601f10610692576101008083540402835291602001916106bd565b820191906000526020600020905b8154815290600101906020018083116106a057829003601f168201915b505050505081526020016003820180546106d690613797565b80601f016020809104026020016040519081016040528092919081815260200182805461070290613797565b801561074f5780601f106107245761010080835404028352916020019161074f565b820191906000526020600020905b81548152906001019060200180831161073257829003601f168201915b5050505050815260200160048201805461076890613797565b80601f016020809104026020016040519081016040528092919081815260200182805461079490613797565b80156107e15780601f106107b6576101008083540402835291602001916107e1565b820191906000526020600020905b8154815290600101906020018083116107c457829003601f168201915b505050505081526020016005820180546107fa90613797565b80601f016020809104026020016040519081016040528092919081815260200182805461082690613797565b80156108735780601f1061084857610100808354040283529160200191610873565b820191906000526020600020905b81548152906001019060200180831161085657829003601f168201915b5050505050815260200160068201805461088c90613797565b80601f01602080910402602001604051908101604052809291908181526020018280546108b890613797565b80156109055780601f106108da57610100808354040283529160200191610905565b820191906000526020600020905b8154815290600101906020018083116108e857829003601f168201915b5050505050815260200160078201805461091e90613797565b80601f016020809104026020016040519081016040528092919081815260200182805461094a90613797565b80156109975780601f1061096c57610100808354040283529160200191610997565b820191906000526020600020905b81548152906001019060200180831161097a57829003601f168201915b505050505081526020016008820180546109b090613797565b80601f01602080910402602001604051908101604052809291908181526020018280546109dc90613797565b8015610a295780601f106109fe57610100808354040283529160200191610a29565b820191906000526020600020905b815481529060010190602001808311610a0c57829003601f168201915b50505050508152602001600982018054610a4290613797565b80601f0160208091040260200160405190810160405280929190818152602001828054610a6e90613797565b8015610abb5780601f10610a9057610100808354040283529160200191610abb565b820191906000526020600020905b815481529060010190602001808311610a9e57829003601f168201915b50505050508152602001600a82018054610ad490613797565b80601f0160208091040260200160405190810160405280929190818152602001828054610b0090613797565b8015610b4d5780601f10610b2257610100808354040283529160200191610b4d565b820191906000526020600020905b815481529060010190602001808311610b3057829003601f168201915b50505050508152602001600b82018054610b6690613797565b80601f0160208091040260200160405190810160405280929190818152602001828054610b9290613797565b8015610bdf5780601f10610bb457610100808354040283529160200191610bdf565b820191906000526020600020905b815481529060010190602001808311610bc257829003601f168201915b5050505050815250509050806000015181602001518260400151836060015184608001518560a001518660c001518760e001518861010001518961012001518a61014001519b509b509b509b509b509b509b509b509b509b509b505091939597999b90929496989a50565b60006060806060806060806060806060600073ffffffffffffffffffffffffffffffffffffffff1660018c604051610c829190613a8c565b908152602001604051809103902060009054906101000a900473ffffffffffffffffffffffffffffffffffffffff1673ffffffffffffffffffffffffffffffffffffffff1603610d07576040517f08c379a0000000000000000000000000000000000000000000000000000000008152600401610cfe90613b5b565b60405180910390fd5b600060028c604051610d199190613a8c565b9081526020016040518091039020604051806101800160405290816000820160009054906101000a900473ffffffffffffffffffffffffffffffffffffffff1673ffffffffffffffffffffffffffffffffffffffff1673ffffffffffffffffffffffffffffffffffffffff168152602001600182018054610d9990613797565b80601f0160208091040260200160405190810160405280929190818152602001828054610dc590613797565b8015610e125780601f10610de757610100808354040283529160200191610e12565b820191906000526020600020905b815481529060010190602001808311610df557829003601f168201915b50505050508152602001600282018054610e2b90613797565b80601f0160208091040260200160405190810160405280929190818152602001828054610e5790613797565b8015610ea45780601f10610e7957610100808354040283529160200191610ea4565b820191906000526020600020905b815481529060010190602001808311610e8757829003601f168201915b50505050508152602001600382018054610ebd90613797565b80601f0160208091040260200160405190810160405280929190818152602001828054610ee990613797565b8015610f365780601f10610f0b57610100808354040283529160200191610f36565b820191906000526020600020905b815481529060010190602001808311610f1957829003601f168201915b50505050508152602001600482018054610f4f90613797565b80601f0160208091040260200160405190810160405280929190818152602001828054610f7b90613797565b8015610fc85780601f10610f9d57610100808354040283529160200191610fc8565b820191906000526020600020905b815481529060010190602001808311610fab57829003601f168201915b50505050508152602001600582018054610fe190613797565b80601f016020809104026020016040519081016040528092919081815260200182805461100d90613797565b801561105a5780601f1061102f5761010080835404028352916020019161105a565b820191906000526020600020905b81548152906001019060200180831161103d57829003601f168201915b5050505050815260200160068201805461107390613797565b80601f016020809104026020016040519081016040528092919081815260200182805461109f90613797565b80156110ec5780601f106110c1576101008083540402835291602001916110ec565b820191906000526020600020905b8154815290600101906020018083116110cf57829003601f168201915b5050505050815260200160078201805461110590613797565b80601f016020809104026020016040519081016040528092919081815260200182805461113190613797565b801561117e5780601f106111535761010080835404028352916020019161117e565b820191906000526020600020905b81548152906001019060200180831161116157829003601f168201915b5050505050815260200160088201805461119790613797565b80601f01602080910402602001604051908101604052809291908181526020018280546111c390613797565b80156112105780601f106111e557610100808354040283529160200191611210565b820191906000526020600020905b8154815290600101906020018083116111f357829003601f168201915b5050505050815260200160098201805461122990613797565b80601f016020809104026020016040519081016040528092919081815260200182805461125590613797565b80156112a25780601f10611277576101008083540402835291602001916112a2565b820191906000526020600020905b81548152906001019060200180831161128557829003601f168201915b50505050508152602001600a820180546112bb90613797565b80601f01602080910402602001604051908101604052809291908181526020018280546112e790613797565b80156113345780601f1061130957610100808354040283529160200191611334565b820191906000526020600020905b81548152906001019060200180831161131757829003601f168201915b50505050508152602001600b8201805461134d90613797565b80601f016020809104026020016040519081016040528092919081815260200182805461137990613797565b80156113c65780601f1061139b576101008083540402835291602001916113c6565b820191906000526020600020905b8154815290600101906020018083116113a957829003601f168201915b5050505050815250509050806000015181602001518260400151836060015184608001518560a001518660e001518761010001518861012001518961014001519a509a509a509a509a509a509a509a509a509a50509193959799509193959799565b600060058360405161143a9190613a8c565b908152602001604051809103902060008373ffffffffffffffffffffffffffffffffffffffff1673ffffffffffffffffffffffffffffffffffffffff16815260200190815260200160002060006101000a81548160ff0219169083151502179055506000600460008373ffffffffffffffffffffffffffffffffffffffff1673ffffffffffffffffffffffffffffffffffffffff168152602001908152602001600020905060005b818054905081101561167357836040516020016114ff9190613a8c565b6040516020818303038152906040528051906020012082828154811061152857611527613b7b565b5b90600052602060002090600202016000016040516020016115499190613c2d565b60405160208183030381529060405280519060200120036116605760008190505b6001838054905061157b9190613c73565b81101561161057826001826115909190613ca7565b815481106115a1576115a0613b7b565b5b90600052602060002090600202018382815481106115c2576115c1613b7b565b5b9060005260206000209060020201600082018160000190816115e49190613cf1565b50600182018160010190816115f99190613cf1565b50905050808061160890613dd9565b91505061156a565b508180548061162257611621613e21565b5b6001900381819060005260206000209060020201600080820160006116479190612a43565b6001820160006116579190612a43565b50509055611673565b808061166b90613dd9565b9150506114e2565b50505050565b60008073ffffffffffffffffffffffffffffffffffffffff166001846040516116a29190613a8c565b908152602001604051809103902060009054906101000a900473ffffffffffffffffffffffffffffffffffffffff1673ffffffffffffffffffffffffffffffffffffffff1603611727576040517f08c379a000000000000000000000000000000000000000000000000000000000815260040161171e90613b5b565b60405180910390fd5b6002836040516117379190613a8c565b9081526020016040518091039020600b016040516020016117589190613c2d565b604051602081830303815290604052805190602001208260405160200161177f9190613a8c565b6040516020818303038152906040528051906020012014905092915050565b606060008054620d6d806117b29190613ca7565b90506117bd816128a8565b91505090565b6005828051602081018201805184825260208301602085012081835280955050505050506020528060005260406000206000915091509054906101000a900460ff1681565b6060600460008373ffffffffffffffffffffffffffffffffffffffff1673ffffffffffffffffffffffffffffffffffffffff168152602001908152602001600020805480602002602001604051908101604052809291908181526020016000905b828210156119bf578382906000526020600020906002020160405180604001604052908160008201805461189c90613797565b80601f01602080910402602001604051908101604052809291908181526020018280546118c890613797565b80156119155780601f106118ea57610100808354040283529160200191611915565b820191906000526020600020905b8154815290600101906020018083116118f857829003601f168201915b5050505050815260200160018201805461192e90613797565b80601f016020809104026020016040519081016040528092919081815260200182805461195a90613797565b80156119a75780601f1061197c576101008083540402835291602001916119a7565b820191906000526020600020905b81548152906001019060200180831161198a57829003601f168201915b50505050508152505081526020019060010190611869565b505050509050919050565b60008073ffffffffffffffffffffffffffffffffffffffff166001836040516119f39190613a8c565b908152602001604051809103902060009054906101000a900473ffffffffffffffffffffffffffffffffffffffff1673ffffffffffffffffffffffffffffffffffffffff1614159050919050565b600660003373ffffffffffffffffffffffffffffffffffffffff1673ffffffffffffffffffffffffffffffffffffffff16815260200190815260200160002060009054906101000a900460ff1615611ace576040517f08c379a0000000000000000000000000000000000000000000000000000000008152600401611ac590613e9c565b60405180910390fd5b6000611ad8612a07565b9050600073ffffffffffffffffffffffffffffffffffffffff16600182604051611b029190613a8c565b908152602001604051809103902060009054906101000a900473ffffffffffffffffffffffffffffffffffffffff1673ffffffffffffffffffffffffffffffffffffffff1614611b87576040517f08c379a0000000000000000000000000000000000000000000000000000000008152600401611b7e90613f08565b60405180910390fd5b60006040518061018001604052803373ffffffffffffffffffffffffffffffffffffffff1681526020018d81526020018c81526020018b81526020018a815260200189815260200183815260200188815260200187815260200186815260200185815260200184815250905080600283604051611c049190613a8c565b908152602001604051809103902060008201518160000160006101000a81548173ffffffffffffffffffffffffffffffffffffffff021916908373ffffffffffffffffffffffffffffffffffffffff1602179055506020820151816001019081611c6e919061397e565b506040820151816002019081611c84919061397e565b506060820151816003019081611c9a919061397e565b506080820151816004019081611cb0919061397e565b5060a0820151816005019081611cc6919061397e565b5060c0820151816006019081611cdc919061397e565b5060e0820151816007019081611cf2919061397e565b50610100820151816008019081611d09919061397e565b50610120820151816009019081611d20919061397e565b5061014082015181600a019081611d37919061397e565b5061016082015181600b019081611d4e919061397e565b5090505033600183604051611d639190613a8c565b908152602001604051809103902060006101000a81548173ffffffffffffffffffffffffffffffffffffffff021916908373ffffffffffffffffffffffffffffffffffffffff160217905550600782908060018154018082558091505060019003906000526020600020016000909190919091509081611de3919061397e565b5080600360003373ffffffffffffffffffffffffffffffffffffffff1673ffffffffffffffffffffffffffffffffffffffff16815260200190815260200160002060008201518160000160006101000a81548173ffffffffffffffffffffffffffffffffffffffff021916908373ffffffffffffffffffffffffffffffffffffffff1602179055506020820151816001019081611e80919061397e565b506040820151816002019081611e96919061397e565b506060820151816003019081611eac919061397e565b506080820151816004019081611ec2919061397e565b5060a0820151816005019081611ed8919061397e565b5060c0820151816006019081611eee919061397e565b5060e0820151816007019081611f04919061397e565b50610100820151816008019081611f1b919061397e565b50610120820151816009019081611f32919061397e565b5061014082015181600a019081611f49919061397e565b5061016082015181600b019081611f60919061397e565b509050506001600660003373ffffffffffffffffffffffffffffffffffffffff1673ffffffffffffffffffffffffffffffffffffffff16815260200190815260200160002060006101000a81548160ff0219169083151502179055506008339080600181540180825580915050600190039060005260206000200160009091909190916101000a81548173ffffffffffffffffffffffffffffffffffffffff021916908373ffffffffffffffffffffffffffffffffffffffff1602179055507f8d3f9c8a09dcd94bc9c847110caac40824996b777a45809b38b82b9aa3f71ec8828d3360405161205293929190613f28565b60405180910390a1505050505050505050505050565b600060058360405161207a9190613a8c565b908152602001604051809103902060008373ffffffffffffffffffffffffffffffffffffffff1673ffffffffffffffffffffffffffffffffffffffff16815260200190815260200160002060009054906101000a900460ff16905092915050565b6060600060088054905067ffffffffffffffff8111156120fe576120fd612b46565b5b60405190808252806020026020018201604052801561213757816020015b612124612a83565b81526020019060019003908161211c5790505b50905060005b6008805490508110156128a057600360006008838154811061216257612161613b7b565b5b9060005260206000200160009054906101000a900473ffffffffffffffffffffffffffffffffffffffff1673ffffffffffffffffffffffffffffffffffffffff1673ffffffffffffffffffffffffffffffffffffffff168152602001908152602001600020604051806101800160405290816000820160009054906101000a900473ffffffffffffffffffffffffffffffffffffffff1673ffffffffffffffffffffffffffffffffffffffff1673ffffffffffffffffffffffffffffffffffffffff16815260200160018201805461223990613797565b80601f016020809104026020016040519081016040528092919081815260200182805461226590613797565b80156122b25780601f10612287576101008083540402835291602001916122b2565b820191906000526020600020905b81548152906001019060200180831161229557829003601f168201915b505050505081526020016002820180546122cb90613797565b80601f01602080910402602001604051908101604052809291908181526020018280546122f790613797565b80156123445780601f1061231957610100808354040283529160200191612344565b820191906000526020600020905b81548152906001019060200180831161232757829003601f168201915b5050505050815260200160038201805461235d90613797565b80601f016020809104026020016040519081016040528092919081815260200182805461238990613797565b80156123d65780601f106123ab576101008083540402835291602001916123d6565b820191906000526020600020905b8154815290600101906020018083116123b957829003601f168201915b505050505081526020016004820180546123ef90613797565b80601f016020809104026020016040519081016040528092919081815260200182805461241b90613797565b80156124685780601f1061243d57610100808354040283529160200191612468565b820191906000526020600020905b81548152906001019060200180831161244b57829003601f168201915b5050505050815260200160058201805461248190613797565b80601f01602080910402602001604051908101604052809291908181526020018280546124ad90613797565b80156124fa5780601f106124cf576101008083540402835291602001916124fa565b820191906000526020600020905b8154815290600101906020018083116124dd57829003601f168201915b5050505050815260200160068201805461251390613797565b80601f016020809104026020016040519081016040528092919081815260200182805461253f90613797565b801561258c5780601f106125615761010080835404028352916020019161258c565b820191906000526020600020905b81548152906001019060200180831161256f57829003601f168201915b505050505081526020016007820180546125a590613797565b80601f01602080910402602001604051908101604052809291908181526020018280546125d190613797565b801561261e5780601f106125f35761010080835404028352916020019161261e565b820191906000526020600020905b81548152906001019060200180831161260157829003601f168201915b5050505050815260200160088201805461263790613797565b80601f016020809104026020016040519081016040528092919081815260200182805461266390613797565b80156126b05780601f10612685576101008083540402835291602001916126b0565b820191906000526020600020905b81548152906001019060200180831161269357829003601f168201915b505050505081526020016009820180546126c990613797565b80601f01602080910402602001604051908101604052809291908181526020018280546126f590613797565b80156127425780601f1061271757610100808354040283529160200191612742565b820191906000526020600020905b81548152906001019060200180831161272557829003601f168201915b50505050508152602001600a8201805461275b90613797565b80601f016020809104026020016040519081016040528092919081815260200182805461278790613797565b80156127d45780601f106127a9576101008083540402835291602001916127d4565b820191906000526020600020905b8154815290600101906020018083116127b757829003601f168201915b50505050508152602001600b820180546127ed90613797565b80601f016020809104026020016040519081016040528092919081815260200182805461281990613797565b80156128665780601f1061283b57610100808354040283529160200191612866565b820191906000526020600020905b81548152906001019060200180831161284957829003601f168201915b50505050508152505082828151811061288257612881613b7b565b5b6020026020010181905250808061289890613dd9565b91505061213d565b508091505090565b6060600082036128ef576040518060400160405280600181526020017f30000000000000000000000000000000000000000000000000000000000000008152509050612a02565b600082905060005b6000821461292157808061290a90613dd9565b915050600a8261291a9190613f9c565b91506128f7565b60008167ffffffffffffffff81111561293d5761293c612b46565b5b6040519080825280601f01601f19166020018201604052801561296f5781602001600182028036833780820191505090505b5090505b600085146129fb57818061298690613fcd565b925050600a856129969190613ff6565b60306129a29190613ca7565b60f81b8183815181106129b8576129b7613b7b565b5b60200101907effffffffffffffffffffffffffffffffffffffffffffffffffffffffffffff1916908160001a905350600a856129f49190613f9c565b9450612973565b8093505050505b919050565b606060008054620d6d80612a1b9190613ca7565b9050600080815480929190612a2f90613dd9565b9190505550612a3d816128a8565b91505090565b508054612a4f90613797565b6000825580601f10612a615750612a80565b601f016020900490600052602060002090810190612a7f9190612afa565b5b50565b604051806101800160405280600073ffffffffffffffffffffffffffffffffffffffff16815260200160608152602001606081526020016060815260200160608152602001606081526020016060815260200160608152602001606081526020016060815260200160608152602001606081525090565b5b80821115612b13576000816000905550600101612afb565b5090565b6000604051905090565b600080fd5b600080fd5b600080fd5b600080fd5b6000601f19601f8301169050919050565b7f4e487b7100000000000000000000000000000000000000000000000000000000600052604160045260246000fd5b612b7e82612b35565b810181811067ffffffffffffffff82111715612b9d57612b9c612b46565b5b80604052505050565b6000612bb0612b17565b9050612bbc8282612b75565b919050565b600067ffffffffffffffff821115612bdc57612bdb612b46565b5b612be582612b35565b9050602081019050919050565b82818337600083830152505050565b6000612c14612c0f84612bc1565b612ba6565b905082815260208101848484011115612c3057612c2f612b30565b5b612c3b848285612bf2565b509392505050565b600082601f830112612c5857612c57612b2b565b5b8135612c68848260208601612c01565b91505092915050565b600073ffffffffffffffffffffffffffffffffffffffff82169050919050565b6000612c9c82612c71565b9050919050565b612cac81612c91565b8114612cb757600080fd5b50565b600081359050612cc981612ca3565b92915050565b600080600060608486031215612ce857612ce7612b21565b5b600084013567ffffffffffffffff811115612d0657612d05612b26565b5b612d1286828701612c43565b9350506020612d2386828701612cba565b925050604084013567ffffffffffffffff811115612d4457612d43612b26565b5b612d5086828701612c43565b9150509250925092565b600060208284031215612d7057612d6f612b21565b5b6000612d7e84828501612cba565b91505092915050565b612d9081612c91565b82525050565b600081519050919050565b600082825260208201905092915050565b60005b83811015612dd0578082015181840152602081019050612db5565b60008484015250505050565b6000612de782612d96565b612df18185612da1565b9350612e01818560208601612db2565b612e0a81612b35565b840191505092915050565b600061016082019050612e2b600083018e612d87565b8181036020830152612e3d818d612ddc565b90508181036040830152612e51818c612ddc565b90508181036060830152612e65818b612ddc565b90508181036080830152612e79818a612ddc565b905081810360a0830152612e8d8189612ddc565b905081810360c0830152612ea18188612ddc565b905081810360e0830152612eb58187612ddc565b9050818103610100830152612eca8186612ddc565b9050818103610120830152612edf8185612ddc565b9050818103610140830152612ef48184612ddc565b90509c9b505050505050505050505050565b600060208284031215612f1c57612f1b612b21565b5b600082013567ffffffffffffffff811115612f3a57612f39612b26565b5b612f4684828501612c43565b91505092915050565b600061014082019050612f65600083018d612d87565b8181036020830152612f77818c612ddc565b90508181036040830152612f8b818b612ddc565b90508181036060830152612f9f818a612ddc565b90508181036080830152612fb38189612ddc565b905081810360a0830152612fc78188612ddc565b905081810360c0830152612fdb8187612ddc565b905081810360e0830152612fef8186612ddc565b90508181036101008301526130048185612ddc565b90508181036101208301526130198184612ddc565b90509b9a5050505050505050505050565b6000806040838503121561304157613040612b21565b5b600083013567ffffffffffffffff81111561305f5761305e612b26565b5b61306b85828601612c43565b925050602061307c85828601612cba565b9150509250929050565b6000806040838503121561309d5761309c612b21565b5b600083013567ffffffffffffffff8111156130bb576130ba612b26565b5b6130c785828601612c43565b925050602083013567ffffffffffffffff8111156130e8576130e7612b26565b5b6130f485828601612c43565b9150509250929050565b60008115159050919050565b613113816130fe565b82525050565b600060208201905061312e600083018461310a565b92915050565b6000602082019050818103600083015261314e8184612ddc565b905092915050565b600081519050919050565b600082825260208201905092915050565b6000819050602082019050919050565b600082825260208201905092915050565b600061319e82612d96565b6131a88185613182565b93506131b8818560208601612db2565b6131c181612b35565b840191505092915050565b600060408301600083015184820360008601526131e98282613193565b915050602083015184820360208601526132038282613193565b9150508091505092915050565b600061321c83836131cc565b905092915050565b6000602082019050919050565b600061323c82613156565b6132468185613161565b93508360208202850161325885613172565b8060005b8581101561329457848403895281516132758582613210565b945061328083613224565b925060208a0199505060018101905061325c565b50829750879550505050505092915050565b600060208201905081810360008301526132c08184613231565b905092915050565b6000806000806000806000806000806101408b8d0312156132ec576132eb612b21565b5b60008b013567ffffffffffffffff81111561330a57613309612b26565b5b6133168d828e01612c43565b9a505060208b013567ffffffffffffffff81111561333757613336612b26565b5b6133438d828e01612c43565b99505060408b013567ffffffffffffffff81111561336457613363612b26565b5b6133708d828e01612c43565b98505060608b013567ffffffffffffffff81111561339157613390612b26565b5b61339d8d828e01612c43565b97505060808b013567ffffffffffffffff8111156133be576133bd612b26565b5b6133ca8d828e01612c43565b96505060a08b013567ffffffffffffffff8111156133eb576133ea612b26565b5b6133f78d828e01612c43565b95505060c08b013567ffffffffffffffff81111561341857613417612b26565b5b6134248d828e01612c43565b94505060e08b013567ffffffffffffffff81111561344557613444612b26565b5b6134518d828e01612c43565b9350506101008b013567ffffffffffffffff81111561347357613472612b26565b5b61347f8d828e01612c43565b9250506101208b013567ffffffffffffffff8111156134a1576134a0612b26565b5b6134ad8d828e01612c43565b9150509295989b9194979a5092959850565b600081519050919050565b600082825260208201905092915050565b6000819050602082019050919050565b6134f481612c91565b82525050565b60006101808301600083015161351360008601826134eb565b506020830151848203602086015261352b8282613193565b915050604083015184820360408601526135458282613193565b9150506060830151848203606086015261355f8282613193565b915050608083015184820360808601526135798282613193565b91505060a083015184820360a08601526135938282613193565b91505060c083015184820360c08601526135ad8282613193565b91505060e083015184820360e08601526135c78282613193565b9150506101008301518482036101008601526135e38282613193565b9150506101208301518482036101208601526135ff8282613193565b91505061014083015184820361014086015261361b8282613193565b9150506101608301518482036101608601526136378282613193565b9150508091505092915050565b600061365083836134fa565b905092915050565b6000602082019050919050565b6000613670826134bf565b61367a81856134ca565b93508360208202850161368c856134db565b8060005b858110156136c857848403895281516136a98582613644565b94506136b483613658565b925060208a01995050600181019050613690565b50829750879550505050505092915050565b600060208201905081810360008301526136f48184613665565b905092915050565b7f446f63746f72206e6f7420726567697374657265642028616464726573732900600082015250565b6000613732601f83612da1565b915061373d826136fc565b602082019050919050565b6000602082019050818103600083015261376181613725565b9050919050565b7f4e487b7100000000000000000000000000000000000000000000000000000000600052602260045260246000fd5b600060028204905060018216806137af57607f821691505b6020821081036137c2576137c1613768565b5b50919050565b60008190508160005260206000209050919050565b60006020601f8301049050919050565b600082821b905092915050565b60006008830261382a7fffffffffffffffffffffffffffffffffffffffffffffffffffffffffffffffff826137ed565b61383486836137ed565b95508019841693508086168417925050509392505050565b6000819050919050565b6000819050919050565b600061387b6138766138718461384c565b613856565b61384c565b9050919050565b6000819050919050565b61389583613860565b6138a96138a182613882565b8484546137fa565b825550505050565b600090565b6138be6138b1565b6138c981848461388c565b505050565b5b818110156138ed576138e26000826138b6565b6001810190506138cf565b5050565b601f82111561393257613903816137c8565b61390c846137dd565b8101602085101561391b578190505b61392f613927856137dd565b8301826138ce565b50505b505050565b600082821c905092915050565b600061395560001984600802613937565b1980831691505092915050565b600061396e8383613944565b9150826002028217905092915050565b61398782612d96565b67ffffffffffffffff8111156139a05761399f612b46565b5b6139aa8254613797565b6139b58282856138f1565b600060209050601f8311600181146139e857600084156139d6578287015190505b6139e08582613962565b865550613a48565b601f1984166139f6866137c8565b60005b82811015613a1e578489015182556001820191506020850194506020810190506139f9565b86831015613a3b5784890151613a37601f891682613944565b8355505b6001600288020188555050505b505050505050565b600081905092915050565b6000613a6682612d96565b613a708185613a50565b9350613a80818560208601612db2565b80840191505092915050565b6000613a988284613a5b565b915081905092915050565b7f446f63746f722061646472657373206e6f742072656769737465726564000000600082015250565b6000613ad9601d83612da1565b9150613ae482613aa3565b602082019050919050565b60006020820190508181036000830152613b0881613acc565b9050919050565b7f446f63746f72206e6f7420726567697374657265640000000000000000000000600082015250565b6000613b45601583612da1565b9150613b5082613b0f565b602082019050919050565b60006020820190508181036000830152613b7481613b38565b9050919050565b7f4e487b7100000000000000000000000000000000000000000000000000000000600052603260045260246000fd5b60008154613bb781613797565b613bc18186613a50565b94506001821660008114613bdc5760018114613bf157613c24565b60ff1983168652811515820286019350613c24565b613bfa856137c8565b60005b83811015613c1c57815481890152600182019150602081019050613bfd565b838801955050505b50505092915050565b6000613c398284613baa565b915081905092915050565b7f4e487b7100000000000000000000000000000000000000000000000000000000600052601160045260246000fd5b6000613c7e8261384c565b9150613c898361384c565b9250828203905081811115613ca157613ca0613c44565b5b92915050565b6000613cb28261384c565b9150613cbd8361384c565b9250828201905080821115613cd557613cd4613c44565b5b92915050565b600081549050613cea81613797565b9050919050565b818103613cff575050613dd7565b613d0882613cdb565b67ffffffffffffffff811115613d2157613d20612b46565b5b613d2b8254613797565b613d368282856138f1565b6000601f831160018114613d655760008415613d53578287015490505b613d5d8582613962565b865550613dd0565b601f198416613d73876137c8565b9650613d7e866137c8565b60005b82811015613da657848901548255600182019150600185019450602081019050613d81565b86831015613dc35784890154613dbf601f891682613944565b8355505b6001600288020188555050505b5050505050505b565b6000613de48261384c565b91507fffffffffffffffffffffffffffffffffffffffffffffffffffffffffffffffff8203613e1657613e15613c44565b5b600182019050919050565b7f4e487b7100000000000000000000000000000000000000000000000000000000600052603160045260246000fd5b7f4164647265737320616c72656164792072656769737465726564000000000000600082015250565b6000613e86601a83612da1565b9150613e9182613e50565b602082019050919050565b60006020820190508181036000830152613eb581613e79565b9050919050565b7f4848204e756d62657220616c7265616479207265676973746572656400000000600082015250565b6000613ef2601c83612da1565b9150613efd82613ebc565b602082019050919050565b60006020820190508181036000830152613f2181613ee5565b9050919050565b60006060820190508181036000830152613f428186612ddc565b90508181036020830152613f568185612ddc565b9050613f656040830184612d87565b949350505050565b7f4e487b7100000000000000000000000000000000000000000000000000000000600052601260045260246000fd5b6000613fa78261384c565b9150613fb28361384c565b925082613fc257613fc1613f6d565b5b828204905092915050565b6000613fd88261384c565b915060008203613feb57613fea613c44565b5b600182039050919050565b60006140018261384c565b915061400c8361384c565b92508261401c5761401b613f6d565b5b82820690509291505056fea2646970667358221220ae078d21bb2820325f5ce7c9da8bd858997ab5220903cc06b542237ea350efab64736f6c63430008130033",
  "immutableReferences": {},
  "source": "// SPDX-License-Identifier: MIT\r\npragma solidity ^0.8.19;\r\n\r\ncontract DoctorRegistration {\r\n    struct Doctor {\r\n        address walletAddress;\r\n        string doctorName;\r\n        string hospitalName;\r\n        string dateOfBirth;\r\n        string gender;\r\n        string email;\r\n        string hhNumber;\r\n        string specialization;\r\n        string department;\r\n        string designation;\r\n        string workExperience;\r\n        string password;\r\n    }\r\n\r\n    struct PatientList {\r\n        string patient_number;\r\n        string patient_name;\r\n    }\r\n\r\n    uint256 private doctorCounter = 1;\r\n\r\n    // original mapping by hhNumber (kept for compatibility)\r\n    mapping(string => address) private doctorAddresses;        // hhNumber -> wallet address\r\n    mapping(string => Doctor) private doctors;                 // hhNumber -> Doctor struct\r\n\r\n    // NEW: mapping by wallet address for permission operations\r\n    mapping(address => Doctor) private doctorsByAddress;       // wallet address -> Doctor struct\r\n    mapping(address => PatientList[]) private Dpermission;     // doctorWallet -> PatientList[]\r\n    mapping(string => mapping(address => bool)) public doctorPermissions; // patientNumber -> (doctorWallet -> bool)\r\n    mapping(address => bool) private isDoctorAddressRegistered;\r\n\r\n    // Lists to enumerate\r\n    string[] private allDoctorNumbers;\r\n    address[] private allDoctorAddresses;\r\n\r\n    event DoctorRegistered(string hhNumber, string doctorName, address walletAddress);\r\n\r\n    function registerDoctor(\r\n        string memory _doctorName,\r\n        string memory _hospitalName,\r\n        string memory _dateOfBirth,\r\n        string memory _gender,\r\n        string memory _email,\r\n        string memory _specialization,\r\n        string memory _department,\r\n        string memory _designation,\r\n        string memory _workExperience,\r\n        string memory _password\r\n    ) external {\r\n        \r\n        require(!isDoctorAddressRegistered[msg.sender], \"Address already registered\");\r\n\r\n        string memory hhNumber = _generateDoctorHH();\r\n        require(doctorAddresses[hhNumber] == address(0), \"HH Number already registered\");\r\n\r\n        Doctor memory newDoctor = Doctor({\r\n            walletAddress: msg.sender,\r\n            doctorName: _doctorName,\r\n            hospitalName: _hospitalName,\r\n            dateOfBirth: _dateOfBirth,\r\n            gender: _gender,\r\n            email: _email,\r\n            hhNumber: hhNumber,\r\n            specialization: _specialization,\r\n            department: _department,\r\n            designation: _designation,\r\n            workExperience: _workExperience,\r\n            password: _password\r\n        });\r\n\r\n        // store by hhNumber (backwards compatibility)\r\n        doctors[hhNumber] = newDoctor;\r\n        doctorAddresses[hhNumber] = msg.sender;\r\n        allDoctorNumbers.push(hhNumber);\r\n\r\n        // store by wallet address (for permission lists and easier lookups)\r\n        doctorsByAddress[msg.sender] = newDoctor;\r\n        isDoctorAddressRegistered[msg.sender] = true;\r\n        allDoctorAddresses.push(msg.sender);\r\n\r\n        emit DoctorRegistered(hhNumber, _doctorName, msg.sender);\r\n    }\r\n\r\n    // Backwards-compatible check by hhNumber\r\n    function isRegisteredDoctor(string memory _hhNumber) external view returns (bool) {\r\n        return doctorAddresses[_hhNumber] != address(0);\r\n    }\r\n\r\n    // Backwards-compatible getter by hhNumber\r\n    function getDoctorDetails(string memory _hhNumber) external view returns (\r\n        address _walletAddress,\r\n        string memory _doctorName,\r\n        string memory _hospitalName,\r\n        string memory _dateOfBirth,\r\n        string memory _gender,\r\n        string memory _email,\r\n        string memory _specialization,\r\n        string memory _department,\r\n        string memory _designation,\r\n        string memory _workExperience\r\n    ) {\r\n        require(doctorAddresses[_hhNumber] != address(0), \"Doctor not registered\");\r\n        Doctor memory doctor = doctors[_hhNumber];\r\n        return (\r\n            doctor.walletAddress,\r\n            doctor.doctorName,\r\n            doctor.hospitalName,\r\n            doctor.dateOfBirth,\r\n            doctor.gender,\r\n            doctor.email,\r\n            doctor.specialization,\r\n            doctor.department,\r\n            doctor.designation,\r\n            doctor.workExperience\r\n        );\r\n    }\r\n\r\n    // NEW: get doctor details by wallet address\r\n    function getDoctorDetailsByAddress(address _doctorAddress) external view returns (\r\n        address _walletAddress,\r\n        string memory _doctorName,\r\n        string memory _hospitalName,\r\n        string memory _dateOfBirth,\r\n        string memory _gender,\r\n        string memory _email,\r\n        string memory _hhNumber,\r\n        string memory _specialization,\r\n        string memory _department,\r\n        string memory _designation,\r\n        string memory _workExperience\r\n    ) {\r\n        require(isDoctorAddressRegistered[_doctorAddress], \"Doctor address not registered\");\r\n        Doctor memory doctor = doctorsByAddress[_doctorAddress];\r\n        return (\r\n            doctor.walletAddress,\r\n            doctor.doctorName,\r\n            doctor.hospitalName,\r\n            doctor.dateOfBirth,\r\n            doctor.gender,\r\n            doctor.email,\r\n            doctor.hhNumber,\r\n            doctor.specialization,\r\n            doctor.department,\r\n            doctor.designation,\r\n            doctor.workExperience\r\n        );\r\n    }\r\n\r\n    function validatePassword(string memory _hhNumber, string memory _password) external view returns (bool) {\r\n        require(doctorAddresses[_hhNumber] != address(0), \"Doctor not registered\");\r\n        return keccak256(abi.encodePacked(_password)) == keccak256(abi.encodePacked(doctors[_hhNumber].password));\r\n    }\r\n\r\n    // --- PERMISSION API (now uses doctor wallet address) ---\r\n\r\n    /// @notice Grant permission for patient `_patientNumber` to the doctor identified by wallet address `_doctorAddress`.\r\n    /// @dev This writes into Dpermission[doctorWallet] and doctorPermissions[patientNumber][doctorWallet] = true\r\n    function grantPermission(\r\n        string memory _patientNumber,\r\n        address _doctorAddress,\r\n        string memory _patientName\r\n    ) external {\r\n        require(isDoctorAddressRegistered[_doctorAddress], \"Doctor not registered (address)\");\r\n\r\n        PatientList memory newRecord = PatientList({\r\n            patient_number: _patientNumber,\r\n            patient_name: _patientName\r\n        });\r\n\r\n        Dpermission[_doctorAddress].push(newRecord);\r\n        doctorPermissions[_patientNumber][_doctorAddress] = true;\r\n    }\r\n\r\n    // check permission for patientNumber -> doctorWallet\r\n    function isPermissionGranted(string memory _patientNumber, address _doctorAddress) external view returns (bool) {\r\n        return doctorPermissions[_patientNumber][_doctorAddress];\r\n    }\r\n\r\n    // revoke permission (by patientNumber and doctor wallet)\r\n    function revokePermission(string memory _patientNumber, address _doctorAddress) public {\r\n        doctorPermissions[_patientNumber][_doctorAddress] = false;\r\n\r\n        // Remove the patient's record from Dpermission[doctorWallet]\r\n        PatientList[] storage list = Dpermission[_doctorAddress];\r\n        for (uint i = 0; i < list.length; i++) {\r\n            if (keccak256(abi.encodePacked(list[i].patient_number)) == keccak256(abi.encodePacked(_patientNumber))) {\r\n                // shift elements left\r\n                for (uint j = i; j < list.length - 1; j++) {\r\n                    list[j] = list[j + 1];\r\n                }\r\n                list.pop();\r\n                break;\r\n            }\r\n        }\r\n    }\r\n\r\n    // get patient list for a doctor (by wallet address)\r\n    function getPatientList(address _doctorAddress) public view returns (PatientList[] memory) {\r\n        return Dpermission[_doctorAddress];\r\n    }\r\n\r\n    // return all doctors (enumeration) — returns array of Doctor structs (includes hhNumber etc.)\r\n    function getAllDoctors() public view returns (Doctor[] memory) {\r\n        Doctor[] memory doctorList = new Doctor[](allDoctorAddresses.length);\r\n        for (uint i = 0; i < allDoctorAddresses.length; i++) {\r\n            doctorList[i] = doctorsByAddress[allDoctorAddresses[i]];\r\n        }\r\n        return doctorList;\r\n    }\r\n\r\n    function _generateDoctorHH() internal returns (string memory) {\r\n        uint256 hh = 880000 + doctorCounter;\r\n        doctorCounter++;\r\n        return _uintToString(hh);\r\n    }\r\n\r\n    function _uintToString(uint256 value) internal pure returns (string memory) {\r\n        if (value == 0) return \"0\";\r\n        uint256 temp = value;\r\n        uint256 digits;\r\n        while (temp != 0) { digits++; temp /= 10; }\r\n        bytes memory buffer = new bytes(digits);\r\n        while (value != 0) {\r\n            digits--;\r\n            buffer[digits] = bytes1(uint8(48 + value % 10));\r\n            value /= 10;\r\n        }\r\n        return string(buffer);\r\n    }\r\n    function getNextDoctorHH() external view returns (string memory) {\r\n    uint256 nextHH = 880000 + doctorCounter;\r\n    return _uintToString(nextHH);\r\n}\r\n}\r\n",
  "sourcePath": "C:\\Users\\santh\\Secure Electronic Records\\src\\contracts\\DoctorRegistration.sol",
  "compiler": {
    "name": "solc",
    "version": "0.8.19+commit.7dd6d404.Emscripten.clang"
  },
  "schemaVersion": "3.4.16",
  "updatedAt": "2026-01-24T07:02:03.752Z",
  "networkType": "ethereum",
  "devdoc": {
    "kind": "dev",
    "methods": {
      "grantPermission(string,address,string)": {
        "details": "This writes into Dpermission[doctorWallet] and doctorPermissions[patientNumber][doctorWallet] = true"
      }
    },
    "version": 1
  },
  "userdoc": {
    "kind": "user",
    "methods": {
      "grantPermission(string,address,string)": {
        "notice": "Grant permission for patient `_patientNumber` to the doctor identified by wallet address `_doctorAddress`."
      }
    },
    "version": 1
  }
}