{
  "contractName": "DoctorForm",
  "abi": [
    {
      "inputs": [
        {
          "internalType": "string",
          "name": "_recordId",
          "type": "string"
        },
        {
          "internalType": "string",
          "name": "_patientName",
          "type": "string"
        },
        {
          "internalType": "address",
          "name": "_patientAddress",
          "type": "address"
        },
        {
          "internalType": "address",
          "name": "_diagnosticAddress",
          "type": "address"
        },
        {
          "internalType": "string",
          "name": "_gender",
          "type": "string"
        },
        {
          "internalType": "string",
          "name": "_diagnosis",
          "type": "string"
        },
        {
          "internalType": "string",
          "name": "_prescription",
          "type": "string"
        },
        {
          "internalType": "address",
          "name": "_doctorAddress",
          "type": "address"
        }
      ],
      "name": "createEHR",
      "outputs": [],
      "stateMutability": "nonpayable",
      "type": "function"
    },
    {
      "inputs": [
        {
          "internalType": "address",
          "name": "_patient",
          "type": "address"
        }
      ],
      "name": "getPatientRecords",
      "outputs": [
        {
          "components": [
            {
              "internalType": "string",
              "name": "recordId",
              "type": "string"
            },
            {
              "internalType": "string",
              "name": "patientName",
              "type": "string"
            },
            {
              "internalType": "address",
              "name": "patientAddress",
              "type": "address"
            },
            {
              "internalType": "address",
              "name": "diagnosticAddress",
              "type": "address"
            },
            {
              "internalType": "string",
              "name": "gender",
              "type": "string"
            },
            {
              "internalType": "string",
              "name": "diagnosis",
              "type": "string"
            },
            {
              "internalType": "string",
              "name": "prescription",
              "type": "string"
            },
            {
              "internalType": "address",
              "name": "doctorAddress",
              "type": "address"
            }
          ],
          "internalType": "struct DoctorForm.Record[]",
          "name": "",
          "type": "tuple[]"
        }
      ],
      "stateMutability": "view",
      "type": "function",
      "constant": true
    },
    {
      "inputs": [
        {
          "internalType": "address",
          "name": "_diagnostic",
          "type": "address"
        }
      ],
      "name": "getDiagnosticRecords",
      "outputs": [
        {
          "components": [
            {
              "internalType": "string",
              "name": "recordId",
              "type": "string"
            },
            {
              "internalType": "string",
              "name": "patientName",
              "type": "string"
            },
            {
              "internalType": "address",
              "name": "patientAddress",
              "type": "address"
            },
            {
              "internalType": "address",
              "name": "diagnosticAddress",
              "type": "address"
            },
            {
              "internalType": "string",
              "name": "gender",
              "type": "string"
            },
            {
              "internalType": "string",
              "name": "diagnosis",
              "type": "string"
            },
            {
              "internalType": "string",
              "name": "prescription",
              "type": "string"
            },
            {
              "internalType": "address",
              "name": "doctorAddress",
              "type": "address"
            }
          ],
          "internalType": "struct DoctorForm.Record[]",
          "name": "",
          "type": "tuple[]"
        }
      ],
      "stateMutability": "view",
      "type": "function",
      "constant": true
    }
  ],
  "bytecode": "0x608060405234801561001057600080fd5b50611664806100206000396000f3fe608060405234801561001057600080fd5b50600436106100415760003560e01c80630c0a96491461004657806318bd484714610062578063ec73f78114610092575b600080fd5b610060600480360381019061005b9190610f99565b6100c2565b005b61007c600480360381019061007791906110db565b6104ec565b6040516100899190611324565b60405180910390f35b6100ac60048036038101906100a791906110db565b610966565b6040516100b99190611324565b60405180910390f35b60006040518061010001604052808a81526020018981526020018873ffffffffffffffffffffffffffffffffffffffff1681526020018773ffffffffffffffffffffffffffffffffffffffff1681526020018681526020018581526020018481526020018373ffffffffffffffffffffffffffffffffffffffff1681525090506000808873ffffffffffffffffffffffffffffffffffffffff1673ffffffffffffffffffffffffffffffffffffffff16815260200190815260200160002081908060018154018082558091505060019003906000526020600020906008020160009091909190915060008201518160000190816101bf919061155c565b5060208201518160010190816101d5919061155c565b5060408201518160020160006101000a81548173ffffffffffffffffffffffffffffffffffffffff021916908373ffffffffffffffffffffffffffffffffffffffff16021790555060608201518160030160006101000a81548173ffffffffffffffffffffffffffffffffffffffff021916908373ffffffffffffffffffffffffffffffffffffffff1602179055506080820151816004019081610279919061155c565b5060a082015181600501908161028f919061155c565b5060c08201518160060190816102a5919061155c565b5060e08201518160070160006101000a81548173ffffffffffffffffffffffffffffffffffffffff021916908373ffffffffffffffffffffffffffffffffffffffff16021790555050506000845111801561032d5750600073ffffffffffffffffffffffffffffffffffffffff168673ffffffffffffffffffffffffffffffffffffffff1614155b156104e157600160008773ffffffffffffffffffffffffffffffffffffffff1673ffffffffffffffffffffffffffffffffffffffff16815260200190815260200160002081908060018154018082558091505060019003906000526020600020906008020160009091909190915060008201518160000190816103b0919061155c565b5060208201518160010190816103c6919061155c565b5060408201518160020160006101000a81548173ffffffffffffffffffffffffffffffffffffffff021916908373ffffffffffffffffffffffffffffffffffffffff16021790555060608201518160030160006101000a81548173ffffffffffffffffffffffffffffffffffffffff021916908373ffffffffffffffffffffffffffffffffffffffff160217905550608082015181600401908161046a919061155c565b5060a0820151816005019081610480919061155c565b5060c0820151816006019081610496919061155c565b5060e08201518160070160006101000a81548173ffffffffffffffffffffffffffffffffffffffff021916908373ffffffffffffffffffffffffffffffffffffffff16021790555050505b505050505050505050565b60606000808373ffffffffffffffffffffffffffffffffffffffff1673ffffffffffffffffffffffffffffffffffffffff168152602001908152602001600020805480602002602001604051908101604052809291908181526020016000905b8282101561095b57838290600052602060002090600802016040518061010001604052908160008201805461058090611375565b80601f01602080910402602001604051908101604052809291908181526020018280546105ac90611375565b80156105f95780601f106105ce576101008083540402835291602001916105f9565b820191906000526020600020905b8154815290600101906020018083116105dc57829003601f168201915b5050505050815260200160018201805461061290611375565b80601f016020809104026020016040519081016040528092919081815260200182805461063e90611375565b801561068b5780601f106106605761010080835404028352916020019161068b565b820191906000526020600020905b81548152906001019060200180831161066e57829003601f168201915b505050505081526020016002820160009054906101000a900473ffffffffffffffffffffffffffffffffffffffff1673ffffffffffffffffffffffffffffffffffffffff1673ffffffffffffffffffffffffffffffffffffffff1681526020016003820160009054906101000a900473ffffffffffffffffffffffffffffffffffffffff1673ffffffffffffffffffffffffffffffffffffffff1673ffffffffffffffffffffffffffffffffffffffff16815260200160048201805461075090611375565b80601f016020809104026020016040519081016040528092919081815260200182805461077c90611375565b80156107c95780601f1061079e576101008083540402835291602001916107c9565b820191906000526020600020905b8154815290600101906020018083116107ac57829003601f168201915b505050505081526020016005820180546107e290611375565b80601f016020809104026020016040519081016040528092919081815260200182805461080e90611375565b801561085b5780601f106108305761010080835404028352916020019161085b565b820191906000526020600020905b81548152906001019060200180831161083e57829003601f168201915b5050505050815260200160068201805461087490611375565b80601f01602080910402602001604051908101604052809291908181526020018280546108a090611375565b80156108ed5780601f106108c2576101008083540402835291602001916108ed565b820191906000526020600020905b8154815290600101906020018083116108d057829003601f168201915b505050505081526020016007820160009054906101000a900473ffffffffffffffffffffffffffffffffffffffff1673ffffffffffffffffffffffffffffffffffffffff1673ffffffffffffffffffffffffffffffffffffffff16815250508152602001906001019061054c565b505050509050919050565b6060600160008373ffffffffffffffffffffffffffffffffffffffff1673ffffffffffffffffffffffffffffffffffffffff168152602001908152602001600020805480602002602001604051908101604052809291908181526020016000905b82821015610dd65783829060005260206000209060080201604051806101000160405290816000820180546109fb90611375565b80601f0160208091040260200160405190810160405280929190818152602001828054610a2790611375565b8015610a745780601f10610a4957610100808354040283529160200191610a74565b820191906000526020600020905b815481529060010190602001808311610a5757829003601f168201915b50505050508152602001600182018054610a8d90611375565b80601f0160208091040260200160405190810160405280929190818152602001828054610ab990611375565b8015610b065780601f10610adb57610100808354040283529160200191610b06565b820191906000526020600020905b815481529060010190602001808311610ae957829003601f168201915b505050505081526020016002820160009054906101000a900473ffffffffffffffffffffffffffffffffffffffff1673ffffffffffffffffffffffffffffffffffffffff1673ffffffffffffffffffffffffffffffffffffffff1681526020016003820160009054906101000a900473ffffffffffffffffffffffffffffffffffffffff1673ffffffffffffffffffffffffffffffffffffffff1673ffffffffffffffffffffffffffffffffffffffff168152602001600482018054610bcb90611375565b80601f0160208091040260200160405190810160405280929190818152602001828054610bf790611375565b8015610c445780601f10610c1957610100808354040283529160200191610c44565b820191906000526020600020905b815481529060010190602001808311610c2757829003601f168201915b50505050508152602001600582018054610c5d90611375565b80601f0160208091040260200160405190810160405280929190818152602001828054610c8990611375565b8015610cd65780601f10610cab57610100808354040283529160200191610cd6565b820191906000526020600020905b815481529060010190602001808311610cb957829003601f168201915b50505050508152602001600682018054610cef90611375565b80601f0160208091040260200160405190810160405280929190818152602001828054610d1b90611375565b8015610d685780601f10610d3d57610100808354040283529160200191610d68565b820191906000526020600020905b815481529060010190602001808311610d4b57829003601f168201915b505050505081526020016007820160009054906101000a900473ffffffffffffffffffffffffffffffffffffffff1673ffffffffffffffffffffffffffffffffffffffff1673ffffffffffffffffffffffffffffffffffffffff1681525050815260200190600101906109c7565b505050509050919050565b6000604051905090565b600080fd5b600080fd5b600080fd5b600080fd5b6000601f19601f8301169050919050565b7f4e487b7100000000000000000000000000000000000000000000000000000000600052604160045260246000fd5b610e4882610dff565b810181811067ffffffffffffffff82111715610e6757610e66610e10565b5b80604052505050565b6000610e7a610de1565b9050610e868282610e3f565b919050565b600067ffffffffffffffff821115610ea657610ea5610e10565b5b610eaf82610dff565b9050602081019050919050565b82818337600083830152505050565b6000610ede610ed984610e8b565b610e70565b905082815260208101848484011115610efa57610ef9610dfa565b5b610f05848285610ebc565b509392505050565b600082601f830112610f2257610f21610df5565b5b8135610f32848260208601610ecb565b91505092915050565b600073ffffffffffffffffffffffffffffffffffffffff82169050919050565b6000610f6682610f3b565b9050919050565b610f7681610f5b565b8114610f8157600080fd5b50565b600081359050610f9381610f6d565b92915050565b600080600080600080600080610100898b031215610fba57610fb9610deb565b5b600089013567ffffffffffffffff811115610fd857610fd7610df0565b5b610fe48b828c01610f0d565b985050602089013567ffffffffffffffff81111561100557611004610df0565b5b6110118b828c01610f0d565b97505060406110228b828c01610f84565b96505060606110338b828c01610f84565b955050608089013567ffffffffffffffff81111561105457611053610df0565b5b6110608b828c01610f0d565b94505060a089013567ffffffffffffffff81111561108157611080610df0565b5b61108d8b828c01610f0d565b93505060c089013567ffffffffffffffff8111156110ae576110ad610df0565b5b6110ba8b828c01610f0d565b92505060e06110cb8b828c01610f84565b9150509295985092959890939650565b6000602082840312156110f1576110f0610deb565b5b60006110ff84828501610f84565b91505092915050565b600081519050919050565b600082825260208201905092915050565b6000819050602082019050919050565b600081519050919050565b600082825260208201905092915050565b60005b8381101561116e578082015181840152602081019050611153565b60008484015250505050565b600061118582611134565b61118f818561113f565b935061119f818560208601611150565b6111a881610dff565b840191505092915050565b6111bc81610f5b565b82525050565b60006101008301600083015184820360008601526111e0828261117a565b915050602083015184820360208601526111fa828261117a565b915050604083015161120f60408601826111b3565b50606083015161122260608601826111b3565b506080830151848203608086015261123a828261117a565b91505060a083015184820360a0860152611254828261117a565b91505060c083015184820360c086015261126e828261117a565b91505060e083015161128360e08601826111b3565b508091505092915050565b600061129a83836111c2565b905092915050565b6000602082019050919050565b60006112ba82611108565b6112c48185611113565b9350836020820285016112d685611124565b8060005b8581101561131257848403895281516112f3858261128e565b94506112fe836112a2565b925060208a019950506001810190506112da565b50829750879550505050505092915050565b6000602082019050818103600083015261133e81846112af565b905092915050565b7f4e487b7100000000000000000000000000000000000000000000000000000000600052602260045260246000fd5b6000600282049050600182168061138d57607f821691505b6020821081036113a05761139f611346565b5b50919050565b60008190508160005260206000209050919050565b60006020601f8301049050919050565b600082821b905092915050565b6000600883026114087fffffffffffffffffffffffffffffffffffffffffffffffffffffffffffffffff826113cb565b61141286836113cb565b95508019841693508086168417925050509392505050565b6000819050919050565b6000819050919050565b600061145961145461144f8461142a565b611434565b61142a565b9050919050565b6000819050919050565b6114738361143e565b61148761147f82611460565b8484546113d8565b825550505050565b600090565b61149c61148f565b6114a781848461146a565b505050565b5b818110156114cb576114c0600082611494565b6001810190506114ad565b5050565b601f821115611510576114e1816113a6565b6114ea846113bb565b810160208510156114f9578190505b61150d611505856113bb565b8301826114ac565b50505b505050565b600082821c905092915050565b600061153360001984600802611515565b1980831691505092915050565b600061154c8383611522565b9150826002028217905092915050565b61156582611134565b67ffffffffffffffff81111561157e5761157d610e10565b5b6115888254611375565b6115938282856114cf565b600060209050601f8311600181146115c657600084156115b4578287015190505b6115be8582611540565b865550611626565b601f1984166115d4866113a6565b60005b828110156115fc578489015182556001820191506020850194506020810190506115d7565b868310156116195784890151611615601f891682611522565b8355505b6001600288020188555050505b50505050505056fea26469706673582212204206f6269a18efd904dca107973385c8c2f70dc4dfd9c272c53b6bc5987733f564736f6c63430008130033",
  "immutableReferences": {},
  "source": "// SPDX-License-Identifier: MIT\r\npragma solidity ^0.8.19;\r\n\r\ncontract DoctorForm {\r\n    struct Record {\r\n        string recordId;\r\n        string patientName;\r\n        address patientAddress;\r\n        address diagnosticAddress;\r\n        string gender;\r\n        string diagnosis;\r\n        string prescription;\r\n        address doctorAddress;\r\n    }\r\n\r\n    mapping(address => Record[]) private patientRecords;\r\n    mapping(address => Record[]) private diagnosticRecords;\r\n\r\n    function createEHR(\r\n        string memory _recordId,\r\n        string memory _patientName,\r\n        address _patientAddress,\r\n        address _diagnosticAddress,   \r\n        string memory _gender,\r\n        string memory _diagnosis,\r\n        string memory _prescription,\r\n        address _doctorAddress\r\n    ) public {\r\n        Record memory newRecord = Record(\r\n            _recordId,\r\n            _patientName,\r\n            _patientAddress,\r\n            _diagnosticAddress,\r\n            _gender,\r\n            _diagnosis,\r\n            _prescription,\r\n            _doctorAddress\r\n        );\r\n\r\n        patientRecords[_patientAddress].push(newRecord);\r\n\r\n        if (bytes(_diagnosis).length > 0 && _diagnosticAddress != address(0)) {\r\n            diagnosticRecords[_diagnosticAddress].push(newRecord);\r\n        }\r\n    }\r\n\r\n    function getPatientRecords(address _patient) public view returns (Record[] memory) {\r\n        return patientRecords[_patient];\r\n    }\r\n\r\n    function getDiagnosticRecords(address _diagnostic) public view returns (Record[] memory) {\r\n        return diagnosticRecords[_diagnostic];\r\n    }\r\n}\r\n",
  "sourcePath": "C:\\Users\\santh\\Secure Electronic Records\\src\\contracts\\DoctorForm.sol",
  "compiler": {
    "name": "solc",
    "version": "0.8.19+commit.7dd6d404.Emscripten.clang"
  },
  "schemaVersion": "3.4.16",
  "updatedAt": "2026-01-24T07:02:05.078Z",
  "networkType": "ethereum",
  "devdoc": {
    "kind": "dev",
    "methods": {},
    "version": 1
  },
  "userdoc": {
    "kind": "user",
    "methods": {},
    "version": 1
  }
}