{
  "contractName": "PatientRegistration",
  "abi": [
    {
      "anonymous": false,
      "inputs": [
        {
          "indexed": false,
          "internalType": "string",
          "name": "hhNumber",
          "type": "string"
        },
        {
          "indexed": false,
          "internalType": "string",
          "name": "name",
          "type": "string"
        },
        {
          "indexed": false,
          "internalType": "address",
          "name": "walletAddress",
          "type": "address"
        }
      ],
      "name": "PatientRegistered",
      "type": "event"
    },
    {
      "inputs": [
        {
          "internalType": "string",
          "name": "",
          "type": "string"
        },
        {
          "internalType": "string",
          "name": "",
          "type": "string"
        }
      ],
      "name": "doctorPermissions",
      "outputs": [
        {
          "internalType": "bool",
          "name": "",
          "type": "bool"
        }
      ],
      "stateMutability": "view",
      "type": "function",
      "constant": true
    },
    {
      "inputs": [
        {
          "internalType": "string",
          "name": "",
          "type": "string"
        }
      ],
      "name": "isPatientRegistered",
      "outputs": [
        {
          "internalType": "bool",
          "name": "",
          "type": "bool"
        }
      ],
      "stateMutability": "view",
      "type": "function",
      "constant": true
    },
    {
      "inputs": [
        {
          "internalType": "string",
          "name": "",
          "type": "string"
        }
      ],
      "name": "patients",
      "outputs": [
        {
          "internalType": "address",
          "name": "walletAddress",
          "type": "address"
        },
        {
          "internalType": "string",
          "name": "name",
          "type": "string"
        },
        {
          "internalType": "string",
          "name": "dateOfBirth",
          "type": "string"
        },
        {
          "internalType": "string",
          "name": "gender",
          "type": "string"
        },
        {
          "internalType": "string",
          "name": "bloodGroup",
          "type": "string"
        },
        {
          "internalType": "string",
          "name": "homeAddress",
          "type": "string"
        },
        {
          "internalType": "string",
          "name": "email",
          "type": "string"
        },
        {
          "internalType": "string",
          "name": "hhNumber",
          "type": "string"
        },
        {
          "internalType": "string",
          "name": "password",
          "type": "string"
        }
      ],
      "stateMutability": "view",
      "type": "function",
      "constant": true
    },
    {
      "inputs": [
        {
          "internalType": "address",
          "name": "_walletAddress",
          "type": "address"
        },
        {
          "internalType": "string",
          "name": "_name",
          "type": "string"
        },
        {
          "internalType": "string",
          "name": "_dateOfBirth",
          "type": "string"
        },
        {
          "internalType": "string",
          "name": "_gender",
          "type": "string"
        },
        {
          "internalType": "string",
          "name": "_bloodGroup",
          "type": "string"
        },
        {
          "internalType": "string",
          "name": "_homeAddress",
          "type": "string"
        },
        {
          "internalType": "string",
          "name": "_email",
          "type": "string"
        },
        {
          "internalType": "string",
          "name": "_password",
          "type": "string"
        }
      ],
      "name": "registerPatient",
      "outputs": [],
      "stateMutability": "nonpayable",
      "type": "function"
    },
    {
      "inputs": [
        {
          "internalType": "string",
          "name": "_hhNumber",
          "type": "string"
        }
      ],
      "name": "isRegisteredPatient",
      "outputs": [
        {
          "internalType": "bool",
          "name": "",
          "type": "bool"
        }
      ],
      "stateMutability": "view",
      "type": "function",
      "constant": true
    },
    {
      "inputs": [
        {
          "internalType": "string",
          "name": "_hhNumber",
          "type": "string"
        },
        {
          "internalType": "string",
          "name": "_password",
          "type": "string"
        }
      ],
      "name": "validatePassword",
      "outputs": [
        {
          "internalType": "bool",
          "name": "",
          "type": "bool"
        }
      ],
      "stateMutability": "view",
      "type": "function",
      "constant": true
    },
    {
      "inputs": [
        {
          "internalType": "string",
          "name": "_hhNumber",
          "type": "string"
        }
      ],
      "name": "getPatientDetails",
      "outputs": [
        {
          "internalType": "address",
          "name": "walletAddress",
          "type": "address"
        },
        {
          "internalType": "string",
          "name": "name",
          "type": "string"
        },
        {
          "internalType": "string",
          "name": "dateOfBirth",
          "type": "string"
        },
        {
          "internalType": "string",
          "name": "gender",
          "type": "string"
        },
        {
          "internalType": "string",
          "name": "bloodGroup",
          "type": "string"
        },
        {
          "internalType": "string",
          "name": "homeAddress",
          "type": "string"
        },
        {
          "internalType": "string",
          "name": "email",
          "type": "string"
        }
      ],
      "stateMutability": "view",
      "type": "function",
      "constant": true
    },
    {
      "inputs": [
        {
          "internalType": "string",
          "name": "_patientNumber",
          "type": "string"
        },
        {
          "internalType": "string",
          "name": "_doctorNumber",
          "type": "string"
        },
        {
          "internalType": "string",
          "name": "_patientName",
          "type": "string"
        }
      ],
      "name": "grantPermission",
      "outputs": [],
      "stateMutability": "nonpayable",
      "type": "function"
    },
    {
      "inputs": [
        {
          "internalType": "string",
          "name": "_patientNumber",
          "type": "string"
        },
        {
          "internalType": "string",
          "name": "_doctorNumber",
          "type": "string"
        }
      ],
      "name": "isPermissionGranted",
      "outputs": [
        {
          "internalType": "bool",
          "name": "",
          "type": "bool"
        }
      ],
      "stateMutability": "view",
      "type": "function",
      "constant": true
    },
    {
      "inputs": [
        {
          "internalType": "string",
          "name": "_doctorNumber",
          "type": "string"
        }
      ],
      "name": "getPatientList",
      "outputs": [
        {
          "components": [
            {
              "internalType": "string",
              "name": "patient_number",
              "type": "string"
            },
            {
              "internalType": "string",
              "name": "patient_name",
              "type": "string"
            }
          ],
          "internalType": "struct PatientRegistration.PatientList[]",
          "name": "",
          "type": "tuple[]"
        }
      ],
      "stateMutability": "view",
      "type": "function",
      "constant": true
    },
    {
      "inputs": [],
      "name": "getNextPatientHH",
      "outputs": [
        {
          "internalType": "string",
          "name": "",
          "type": "string"
        }
      ],
      "stateMutability": "view",
      "type": "function",
      "constant": true
    }
  ],
  "bytecode": "0x6080604052600160005534801561001557600080fd5b506126d5806100256000396000f3fe608060405234801561001057600080fd5b50600436106100a95760003560e01c806380dd87761161007157806380dd87761461017857806391c12f7614610194578063c6009d84146101c4578063d120c10c146101fc578063ea977fc81461022c578063f725264114610262576100a9565b806344334733146100ae5780634f10c6c2146100de578063538703bc1461010e5780635df670401461012c5780637babdb2614610148575b600080fd5b6100c860048036038101906100c39190611891565b610292565b6040516100d59190611924565b60405180910390f35b6100f860048036038101906100f3919061193f565b6102ed565b6040516101059190611924565b60405180910390f35b610116610323565b6040516101239190611a07565b60405180910390f35b61014660048036038101906101419190611a29565b610348565b005b610162600480360381019061015d9190611891565b61059c565b60405161016f9190611924565b60405180910390f35b610192600480360381019061018d9190611b2e565b610680565b005b6101ae60048036038101906101a9919061193f565b6108e9565b6040516101bb9190611df8565b60405180910390f35b6101de60048036038101906101d9919061193f565b610a8a565b6040516101f399989796959493929190611e29565b60405180910390f35b61021660048036038101906102119190611891565b610f4e565b6040516102239190611924565b60405180910390f35b6102466004803603810190610241919061193f565b610fa0565b6040516102599796959493929190611eee565b60405180910390f35b61027c6004803603810190610277919061193f565b611567565b6040516102899190611924565b60405180910390f35b600482805160208101820180518482526020830160208501208183528095505050505050818051602081018201805184825260208301602085012081835280955050505050506000915091509054906101000a900460ff1681565b6001818051602081018201805184825260208301602085012081835280955050505050506000915054906101000a900460ff1681565b606060008054620f1b306103379190611fc0565b90506103428161159c565b91505090565b6004836040516103589190612030565b9081526020016040518091039020826040516103749190612030565b908152602001604051809103902060009054906101000a900460ff16156103d0576040517f08c379a00000000000000000000000000000000000000000000000000000000081526004016103c7906120b9565b60405180910390fd5b6000805b6003846040516103e49190612030565b9081526020016040518091039020805490508110156104ac578460405160200161040e9190612030565b604051602081830303815290604052805190602001206003856040516104349190612030565b90815260200160405180910390208281548110610454576104536120d9565b5b90600052602060002090600202016000016040516020016104759190612200565b604051602081830303815290604052805190602001200361049957600191506104ac565b80806104a490612217565b9150506103d4565b508061054357600060405180604001604052808681526020018481525090506003846040516104db9190612030565b9081526020016040518091039020819080600181540180825580915050600190039060005260206000209060020201600090919091909150600082015181600001908161052891906123f6565b50602082015181600101908161053e91906123f6565b505050505b60016004856040516105559190612030565b9081526020016040518091039020846040516105719190612030565b908152602001604051809103902060006101000a81548160ff02191690831515021790555050505050565b60006001836040516105ae9190612030565b908152602001604051809103902060009054906101000a900460ff16610609576040517f08c379a000000000000000000000000000000000000000000000000000000000815260040161060090612514565b60405180910390fd5b6002836040516106199190612030565b908152602001604051809103902060080160405160200161063a9190612200565b60405160208183030381529060405280519060200120826040516020016106619190612030565b6040516020818303038152906040528051906020012014905092915050565b600061068a6116fb565b905060018160405161069c9190612030565b908152602001604051809103902060009054906101000a900460ff16156106f8576040517f08c379a00000000000000000000000000000000000000000000000000000000081526004016106ef90612580565b60405180910390fd5b60006040518061012001604052808b73ffffffffffffffffffffffffffffffffffffffff1681526020018a8152602001898152602001888152602001878152602001868152602001858152602001838152602001848152509050806002836040516107639190612030565b908152602001604051809103902060008201518160000160006101000a81548173ffffffffffffffffffffffffffffffffffffffff021916908373ffffffffffffffffffffffffffffffffffffffff16021790555060208201518160010190816107cd91906123f6565b5060408201518160020190816107e391906123f6565b5060608201518160030190816107f991906123f6565b50608082015181600401908161080f91906123f6565b5060a082015181600501908161082591906123f6565b5060c082015181600601908161083b91906123f6565b5060e082015181600701908161085191906123f6565b5061010082015181600801908161086891906123f6565b509050506001808360405161087d9190612030565b908152602001604051809103902060006101000a81548160ff0219169083151502179055507f319ae3a95b9a410d647835a7e64d54ddf28faf35a698f0a2b63999585fa38edc828a8c6040516108d5939291906125a0565b60405180910390a150505050505050505050565b60606003826040516108fb9190612030565b9081526020016040518091039020805480602002602001604051908101604052809291908181526020016000905b82821015610a7f578382906000526020600020906002020160405180604001604052908160008201805461095c90612137565b80601f016020809104026020016040519081016040528092919081815260200182805461098890612137565b80156109d55780601f106109aa576101008083540402835291602001916109d5565b820191906000526020600020905b8154815290600101906020018083116109b857829003601f168201915b505050505081526020016001820180546109ee90612137565b80601f0160208091040260200160405190810160405280929190818152602001828054610a1a90612137565b8015610a675780601f10610a3c57610100808354040283529160200191610a67565b820191906000526020600020905b815481529060010190602001808311610a4a57829003601f168201915b50505050508152505081526020019060010190610929565b505050509050919050565b6002818051602081018201805184825260208301602085012081835280955050505050506000915090508060000160009054906101000a900473ffffffffffffffffffffffffffffffffffffffff1690806001018054610ae990612137565b80601f0160208091040260200160405190810160405280929190818152602001828054610b1590612137565b8015610b625780601f10610b3757610100808354040283529160200191610b62565b820191906000526020600020905b815481529060010190602001808311610b4557829003601f168201915b505050505090806002018054610b7790612137565b80601f0160208091040260200160405190810160405280929190818152602001828054610ba390612137565b8015610bf05780601f10610bc557610100808354040283529160200191610bf0565b820191906000526020600020905b815481529060010190602001808311610bd357829003601f168201915b505050505090806003018054610c0590612137565b80601f0160208091040260200160405190810160405280929190818152602001828054610c3190612137565b8015610c7e5780601f10610c5357610100808354040283529160200191610c7e565b820191906000526020600020905b815481529060010190602001808311610c6157829003601f168201915b505050505090806004018054610c9390612137565b80601f0160208091040260200160405190810160405280929190818152602001828054610cbf90612137565b8015610d0c5780601f10610ce157610100808354040283529160200191610d0c565b820191906000526020600020905b815481529060010190602001808311610cef57829003601f168201915b505050505090806005018054610d2190612137565b80601f0160208091040260200160405190810160405280929190818152602001828054610d4d90612137565b8015610d9a5780601f10610d6f57610100808354040283529160200191610d9a565b820191906000526020600020905b815481529060010190602001808311610d7d57829003601f168201915b505050505090806006018054610daf90612137565b80601f0160208091040260200160405190810160405280929190818152602001828054610ddb90612137565b8015610e285780601f10610dfd57610100808354040283529160200191610e28565b820191906000526020600020905b815481529060010190602001808311610e0b57829003601f168201915b505050505090806007018054610e3d90612137565b80601f0160208091040260200160405190810160405280929190818152602001828054610e6990612137565b8015610eb65780601f10610e8b57610100808354040283529160200191610eb6565b820191906000526020600020905b815481529060010190602001808311610e9957829003601f168201915b505050505090806008018054610ecb90612137565b80601f0160208091040260200160405190810160405280929190818152602001828054610ef790612137565b8015610f445780601f10610f1957610100808354040283529160200191610f44565b820191906000526020600020905b815481529060010190602001808311610f2757829003601f168201915b5050505050905089565b6000600483604051610f609190612030565b908152602001604051809103902082604051610f7c9190612030565b908152602001604051809103902060009054906101000a900460ff16905092915050565b6000606080606080606080600188604051610fbb9190612030565b908152602001604051809103902060009054906101000a900460ff16611016576040517f08c379a000000000000000000000000000000000000000000000000000000000815260040161100d90612514565b60405180910390fd5b60006002896040516110289190612030565b9081526020016040518091039020604051806101200160405290816000820160009054906101000a900473ffffffffffffffffffffffffffffffffffffffff1673ffffffffffffffffffffffffffffffffffffffff1673ffffffffffffffffffffffffffffffffffffffff1681526020016001820180546110a890612137565b80601f01602080910402602001604051908101604052809291908181526020018280546110d490612137565b80156111215780601f106110f657610100808354040283529160200191611121565b820191906000526020600020905b81548152906001019060200180831161110457829003601f168201915b5050505050815260200160028201805461113a90612137565b80601f016020809104026020016040519081016040528092919081815260200182805461116690612137565b80156111b35780601f10611188576101008083540402835291602001916111b3565b820191906000526020600020905b81548152906001019060200180831161119657829003601f168201915b505050505081526020016003820180546111cc90612137565b80601f01602080910402602001604051908101604052809291908181526020018280546111f890612137565b80156112455780601f1061121a57610100808354040283529160200191611245565b820191906000526020600020905b81548152906001019060200180831161122857829003601f168201915b5050505050815260200160048201805461125e90612137565b80601f016020809104026020016040519081016040528092919081815260200182805461128a90612137565b80156112d75780601f106112ac576101008083540402835291602001916112d7565b820191906000526020600020905b8154815290600101906020018083116112ba57829003601f168201915b505050505081526020016005820180546112f090612137565b80601f016020809104026020016040519081016040528092919081815260200182805461131c90612137565b80156113695780601f1061133e57610100808354040283529160200191611369565b820191906000526020600020905b81548152906001019060200180831161134c57829003601f168201915b5050505050815260200160068201805461138290612137565b80601f01602080910402602001604051908101604052809291908181526020018280546113ae90612137565b80156113fb5780601f106113d0576101008083540402835291602001916113fb565b820191906000526020600020905b8154815290600101906020018083116113de57829003601f168201915b5050505050815260200160078201805461141490612137565b80601f016020809104026020016040519081016040528092919081815260200182805461144090612137565b801561148d5780601f106114625761010080835404028352916020019161148d565b820191906000526020600020905b81548152906001019060200180831161147057829003601f168201915b505050505081526020016008820180546114a690612137565b80601f01602080910402602001604051908101604052809291908181526020018280546114d290612137565b801561151f5780601f106114f45761010080835404028352916020019161151f565b820191906000526020600020905b81548152906001019060200180831161150257829003601f168201915b5050505050815250509050806000015181602001518260400151836060015184608001518560a001518660c00151975097509750975097509750975050919395979092949650565b60006001826040516115799190612030565b908152602001604051809103902060009054906101000a900460ff169050919050565b6060600082036115e3576040518060400160405280600181526020017f300000000000000000000000000000000000000000000000000000000000000081525090506116f6565b600082905060005b600082146116155780806115fe90612217565b915050600a8261160e9190612614565b91506115eb565b60008167ffffffffffffffff81111561163157611630611766565b5b6040519080825280601f01601f1916602001820160405280156116635781602001600182028036833780820191505090505b5090505b600085146116ef57818061167a90612645565b925050600a8561168a919061266e565b60306116969190611fc0565b60f81b8183815181106116ac576116ab6120d9565b5b60200101907effffffffffffffffffffffffffffffffffffffffffffffffffffffffffffff1916908160001a905350600a856116e89190612614565b9450611667565b8093505050505b919050565b606060008054620f1b3061170f9190611fc0565b905060008081548092919061172390612217565b91905055506117318161159c565b91505090565b6000604051905090565b600080fd5b600080fd5b600080fd5b600080fd5b6000601f19601f8301169050919050565b7f4e487b7100000000000000000000000000000000000000000000000000000000600052604160045260246000fd5b61179e82611755565b810181811067ffffffffffffffff821117156117bd576117bc611766565b5b80604052505050565b60006117d0611737565b90506117dc8282611795565b919050565b600067ffffffffffffffff8211156117fc576117fb611766565b5b61180582611755565b9050602081019050919050565b82818337600083830152505050565b600061183461182f846117e1565b6117c6565b9050828152602081018484840111156118505761184f611750565b5b61185b848285611812565b509392505050565b600082601f8301126118785761187761174b565b5b8135611888848260208601611821565b91505092915050565b600080604083850312156118a8576118a7611741565b5b600083013567ffffffffffffffff8111156118c6576118c5611746565b5b6118d285828601611863565b925050602083013567ffffffffffffffff8111156118f3576118f2611746565b5b6118ff85828601611863565b9150509250929050565b60008115159050919050565b61191e81611909565b82525050565b60006020820190506119396000830184611915565b92915050565b60006020828403121561195557611954611741565b5b600082013567ffffffffffffffff81111561197357611972611746565b5b61197f84828501611863565b91505092915050565b600081519050919050565b600082825260208201905092915050565b60005b838110156119c25780820151818401526020810190506119a7565b60008484015250505050565b60006119d982611988565b6119e38185611993565b93506119f38185602086016119a4565b6119fc81611755565b840191505092915050565b60006020820190508181036000830152611a2181846119ce565b905092915050565b600080600060608486031215611a4257611a41611741565b5b600084013567ffffffffffffffff811115611a6057611a5f611746565b5b611a6c86828701611863565b935050602084013567ffffffffffffffff811115611a8d57611a8c611746565b5b611a9986828701611863565b925050604084013567ffffffffffffffff811115611aba57611ab9611746565b5b611ac686828701611863565b9150509250925092565b600073ffffffffffffffffffffffffffffffffffffffff82169050919050565b6000611afb82611ad0565b9050919050565b611b0b81611af0565b8114611b1657600080fd5b50565b600081359050611b2881611b02565b92915050565b600080600080600080600080610100898b031215611b4f57611b4e611741565b5b6000611b5d8b828c01611b19565b985050602089013567ffffffffffffffff811115611b7e57611b7d611746565b5b611b8a8b828c01611863565b975050604089013567ffffffffffffffff811115611bab57611baa611746565b5b611bb78b828c01611863565b965050606089013567ffffffffffffffff811115611bd857611bd7611746565b5b611be48b828c01611863565b955050608089013567ffffffffffffffff811115611c0557611c04611746565b5b611c118b828c01611863565b94505060a089013567ffffffffffffffff811115611c3257611c31611746565b5b611c3e8b828c01611863565b93505060c089013567ffffffffffffffff811115611c5f57611c5e611746565b5b611c6b8b828c01611863565b92505060e089013567ffffffffffffffff811115611c8c57611c8b611746565b5b611c988b828c01611863565b9150509295985092959890939650565b600081519050919050565b600082825260208201905092915050565b6000819050602082019050919050565b600082825260208201905092915050565b6000611cf082611988565b611cfa8185611cd4565b9350611d0a8185602086016119a4565b611d1381611755565b840191505092915050565b60006040830160008301518482036000860152611d3b8282611ce5565b91505060208301518482036020860152611d558282611ce5565b9150508091505092915050565b6000611d6e8383611d1e565b905092915050565b6000602082019050919050565b6000611d8e82611ca8565b611d988185611cb3565b935083602082028501611daa85611cc4565b8060005b85811015611de65784840389528151611dc78582611d62565b9450611dd283611d76565b925060208a01995050600181019050611dae565b50829750879550505050505092915050565b60006020820190508181036000830152611e128184611d83565b905092915050565b611e2381611af0565b82525050565b600061012082019050611e3f600083018c611e1a565b8181036020830152611e51818b6119ce565b90508181036040830152611e65818a6119ce565b90508181036060830152611e7981896119ce565b90508181036080830152611e8d81886119ce565b905081810360a0830152611ea181876119ce565b905081810360c0830152611eb581866119ce565b905081810360e0830152611ec981856119ce565b9050818103610100830152611ede81846119ce565b90509a9950505050505050505050565b600060e082019050611f03600083018a611e1a565b8181036020830152611f1581896119ce565b90508181036040830152611f2981886119ce565b90508181036060830152611f3d81876119ce565b90508181036080830152611f5181866119ce565b905081810360a0830152611f6581856119ce565b905081810360c0830152611f7981846119ce565b905098975050505050505050565b6000819050919050565b7f4e487b7100000000000000000000000000000000000000000000000000000000600052601160045260246000fd5b6000611fcb82611f87565b9150611fd683611f87565b9250828201905080821115611fee57611fed611f91565b5b92915050565b600081905092915050565b600061200a82611988565b6120148185611ff4565b93506120248185602086016119a4565b80840191505092915050565b600061203c8284611fff565b915081905092915050565b7f566965772041636365737320616c726561647920676976656e20746f2074686560008201527f20446f63746f7221000000000000000000000000000000000000000000000000602082015250565b60006120a3602883611993565b91506120ae82612047565b604082019050919050565b600060208201905081810360008301526120d281612096565b9050919050565b7f4e487b7100000000000000000000000000000000000000000000000000000000600052603260045260246000fd5b7f4e487b7100000000000000000000000000000000000000000000000000000000600052602260045260246000fd5b6000600282049050600182168061214f57607f821691505b60208210810361216257612161612108565b5b50919050565b60008190508160005260206000209050919050565b6000815461218a81612137565b6121948186611ff4565b945060018216600081146121af57600181146121c4576121f7565b60ff19831686528115158202860193506121f7565b6121cd85612168565b60005b838110156121ef578154818901526001820191506020810190506121d0565b838801955050505b50505092915050565b600061220c828461217d565b915081905092915050565b600061222282611f87565b91507fffffffffffffffffffffffffffffffffffffffffffffffffffffffffffffffff820361225457612253611f91565b5b600182019050919050565b60006020601f8301049050919050565b600082821b905092915050565b6000600883026122ac7fffffffffffffffffffffffffffffffffffffffffffffffffffffffffffffffff8261226f565b6122b6868361226f565b95508019841693508086168417925050509392505050565b6000819050919050565b60006122f36122ee6122e984611f87565b6122ce565b611f87565b9050919050565b6000819050919050565b61230d836122d8565b612321612319826122fa565b84845461227c565b825550505050565b600090565b612336612329565b612341818484612304565b505050565b5b818110156123655761235a60008261232e565b600181019050612347565b5050565b601f8211156123aa5761237b81612168565b6123848461225f565b81016020851015612393578190505b6123a761239f8561225f565b830182612346565b50505b505050565b600082821c905092915050565b60006123cd600019846008026123af565b1980831691505092915050565b60006123e683836123bc565b9150826002028217905092915050565b6123ff82611988565b67ffffffffffffffff81111561241857612417611766565b5b6124228254612137565b61242d828285612369565b600060209050601f831160018114612460576000841561244e578287015190505b61245885826123da565b8655506124c0565b601f19841661246e86612168565b60005b8281101561249657848901518255600182019150602085019450602081019050612471565b868310156124b357848901516124af601f8916826123bc565b8355505b6001600288020188555050505b505050505050565b7f50617469656e74206e6f74207265676973746572656400000000000000000000600082015250565b60006124fe601683611993565b9150612509826124c8565b602082019050919050565b6000602082019050818103600083015261252d816124f1565b9050919050565b7f50617469656e7420616c72656164792072656769737465726564000000000000600082015250565b600061256a601a83611993565b915061257582612534565b602082019050919050565b600060208201905081810360008301526125998161255d565b9050919050565b600060608201905081810360008301526125ba81866119ce565b905081810360208301526125ce81856119ce565b90506125dd6040830184611e1a565b949350505050565b7f4e487b7100000000000000000000000000000000000000000000000000000000600052601260045260246000fd5b600061261f82611f87565b915061262a83611f87565b92508261263a576126396125e5565b5b828204905092915050565b600061265082611f87565b91506000820361266357612662611f91565b5b600182039050919050565b600061267982611f87565b915061268483611f87565b925082612694576126936125e5565b5b82820690509291505056fea2646970667358221220524a0bad81252959cfe9d547ac842d16db138abdb4b6e5443deb90968a79d59964736f6c63430008130033",
  "immutableReferences": {},
  "source": "// SPDX-License-Identifier: MIT\r\npragma solidity ^0.8.19;\r\n\r\ncontract PatientRegistration {\r\n    struct Patient {\r\n        address walletAddress;\r\n        string name;\r\n        string dateOfBirth;\r\n        string gender;\r\n        string bloodGroup;\r\n        string homeAddress;\r\n        string email;\r\n        string hhNumber;\r\n        string password;\r\n    }\r\n\r\n    struct PatientList{\r\n        string patient_number;\r\n        string patient_name;\r\n    }\r\n\r\n    uint256 private patientCounter = 1;\r\n\r\n    mapping(string => bool) public isPatientRegistered;\r\n    mapping(string => Patient) public patients;\r\n    mapping(string => PatientList[]) private Dpermission;\r\n    mapping(string => mapping(string => bool)) public doctorPermissions;\r\n\r\n    event PatientRegistered(string hhNumber, string name, address walletAddress);\r\n\r\n    function registerPatient(\r\n        address _walletAddress,\r\n        string memory _name,\r\n        string memory _dateOfBirth,\r\n        string memory _gender,\r\n        string memory _bloodGroup,\r\n        string memory _homeAddress,\r\n        string memory _email,\r\n        string memory _password\r\n\r\n    ) external {\r\n        string memory hhNumber = _generatePatientHH();\r\n        require(!isPatientRegistered[hhNumber], \"Patient already registered\");\r\n\r\n        Patient memory newPatient = Patient({\r\n            walletAddress: _walletAddress,\r\n            name: _name,\r\n            dateOfBirth: _dateOfBirth,\r\n            gender: _gender,\r\n            bloodGroup: _bloodGroup,\r\n            homeAddress: _homeAddress,\r\n            email: _email,    \r\n            hhNumber: hhNumber,        \r\n            password: _password // Store password in the struct\r\n        });\r\n\r\n        patients[hhNumber] = newPatient;\r\n        isPatientRegistered[hhNumber] = true;\r\n        emit PatientRegistered(hhNumber, _name, _walletAddress);\r\n    }\r\n\r\n    function isRegisteredPatient(string memory _hhNumber) external view returns (bool) {\r\n        return isPatientRegistered[_hhNumber];\r\n    }\r\n    \r\n    // Add a function to validate patient's password\r\n    function validatePassword(string memory _hhNumber, string memory _password) external view returns (bool) {\r\n        require(isPatientRegistered[_hhNumber], \"Patient not registered\");\r\n        return keccak256(abi.encodePacked(_password)) == keccak256(abi.encodePacked(patients[_hhNumber].password));\r\n    }\r\n\r\n    function getPatientDetails(string memory _hhNumber) external view returns (\r\n    address walletAddress,\r\n    string memory name,\r\n    string memory dateOfBirth,\r\n    string memory gender,\r\n    string memory bloodGroup,\r\n    string memory homeAddress,\r\n    string memory email\r\n    ) {\r\n        require(isPatientRegistered[_hhNumber], \"Patient not registered\");\r\n        Patient memory patient = patients[_hhNumber];\r\n        return (patient.walletAddress, patient.name, patient.dateOfBirth, patient.gender, patient.bloodGroup, patient.homeAddress, patient.email);\r\n    }\r\n\r\n    function grantPermission(\r\n        string memory _patientNumber,\r\n        string memory _doctorNumber,\r\n        string memory _patientName\r\n    ) external {\r\n        require(!doctorPermissions[_patientNumber][_doctorNumber], \"View Access already given to the Doctor!\");\r\n        // Check if the patient number already exists in the list\r\n        bool exists = false;\r\n        for (uint i = 0; i < Dpermission[_doctorNumber].length; i++) {\r\n            if (keccak256(abi.encodePacked(Dpermission[_doctorNumber][i].patient_number)) == keccak256(abi.encodePacked(_patientNumber))) {\r\n                exists = true;\r\n                break;\r\n            }\r\n        }\r\n\r\n        // If the patient number does not exist, add it to the list\r\n        if (!exists) {\r\n            PatientList memory newRecord = PatientList(\r\n                _patientNumber,\r\n                _patientName\r\n            );\r\n            Dpermission[_doctorNumber].push(newRecord);\r\n        }\r\n        doctorPermissions[_patientNumber][_doctorNumber] = true;\r\n    }\r\n\r\n    function isPermissionGranted(string memory _patientNumber,string memory _doctorNumber) external view returns (bool) {\r\n        return doctorPermissions[_patientNumber][_doctorNumber];\r\n    }\r\n\r\n    function getPatientList(string memory _doctorNumber) public view returns (PatientList[] memory) {\r\n        return Dpermission[_doctorNumber];\r\n    }\r\n    function _generatePatientHH() internal returns (string memory) {\r\n        uint256 hh = 990000 + patientCounter;\r\n        patientCounter++;\r\n        return _uintToString(hh);\r\n    }\r\n\r\n    function _uintToString(uint256 value) internal pure returns (string memory) {\r\n        if (value == 0) return \"0\";\r\n        uint256 temp = value;\r\n        uint256 digits;\r\n        while (temp != 0) { digits++; temp /= 10; }\r\n        bytes memory buffer = new bytes(digits);\r\n        while (value != 0) {\r\n            digits--;\r\n            buffer[digits] = bytes1(uint8(48 + value % 10));\r\n            value /= 10;\r\n        }\r\n        return string(buffer);\r\n    }\r\n    function getNextPatientHH() external view returns (string memory) {\r\n    uint256 nextHH = 990000 + patientCounter;\r\n    return _uintToString(nextHH);\r\n}\r\n}\r\n",
  "sourcePath": "C:\\Users\\santh\\Secure Electronic Records\\src\\contracts\\PatientRegistration.sol",
  "compiler": {
    "name": "solc",
    "version": "0.8.19+commit.7dd6d404.Emscripten.clang"
  },
  "schemaVersion": "3.4.16",
  "updatedAt": "2026-01-24T07:02:04.088Z",
  "networkType": "ethereum",
  "devdoc": {
    "kind": "dev",
    "methods": {},
    "version": 1
  },
  "userdoc": {
    "kind": "user",
    "methods": {},
    "version": 1
  }
}