{
  "contractName": "UploadEhr",
  "abi": [
    {
      "inputs": [
        {
          "internalType": "string",
          "name": "_timeStamp",
          "type": "string"
        },
        {
          "internalType": "string",
          "name": "_medicalRecordHash",
          "type": "string"
        }
      ],
      "name": "addPatientRecord",
      "outputs": [],
      "stateMutability": "nonpayable",
      "type": "function"
    },
    {
      "inputs": [
        {
          "internalType": "address",
          "name": "_patient",
          "type": "address"
        },
        {
          "internalType": "string",
          "name": "_doctorName",
          "type": "string"
        },
        {
          "internalType": "string",
          "name": "_doctorDesignation",
          "type": "string"
        },
        {
          "internalType": "string",
          "name": "_doctorDepartment",
          "type": "string"
        },
        {
          "internalType": "string",
          "name": "_doctorSpecialization",
          "type": "string"
        },
        {
          "internalType": "string",
          "name": "_hospitalName",
          "type": "string"
        },
        {
          "internalType": "string",
          "name": "_timeStamp",
          "type": "string"
        },
        {
          "internalType": "string",
          "name": "_medicalRecordHash",
          "type": "string"
        }
      ],
      "name": "addDiagnosticRecord",
      "outputs": [],
      "stateMutability": "nonpayable",
      "type": "function"
    },
    {
      "inputs": [
        {
          "internalType": "address",
          "name": "_patient",
          "type": "address"
        }
      ],
      "name": "getRecords",
      "outputs": [
        {
          "components": [
            {
              "internalType": "address",
              "name": "uploader",
              "type": "address"
            },
            {
              "internalType": "string",
              "name": "uploaderRole",
              "type": "string"
            },
            {
              "internalType": "string",
              "name": "doctorName",
              "type": "string"
            },
            {
              "internalType": "string",
              "name": "doctorDesignation",
              "type": "string"
            },
            {
              "internalType": "string",
              "name": "doctorDepartment",
              "type": "string"
            },
            {
              "internalType": "string",
              "name": "doctorSpecialization",
              "type": "string"
            },
            {
              "internalType": "string",
              "name": "hospitalName",
              "type": "string"
            },
            {
              "internalType": "string",
              "name": "timeStamp",
              "type": "string"
            },
            {
              "internalType": "string",
              "name": "medicalRecordHash",
              "type": "string"
            },
            {
              "internalType": "address",
              "name": "patientAddress",
              "type": "address"
            }
          ],
          "internalType": "struct UploadEhr.PatientRecord[]",
          "name": "",
          "type": "tuple[]"
        }
      ],
      "stateMutability": "view",
      "type": "function",
      "constant": true
    },
    {
      "inputs": [],
      "name": "getAllRecords",
      "outputs": [
        {
          "components": [
            {
              "internalType": "address",
              "name": "uploader",
              "type": "address"
            },
            {
              "internalType": "string",
              "name": "uploaderRole",
              "type": "string"
            },
            {
              "internalType": "string",
              "name": "doctorName",
              "type": "string"
            },
            {
              "internalType": "string",
              "name": "doctorDesignation",
              "type": "string"
            },
            {
              "internalType": "string",
              "name": "doctorDepartment",
              "type": "string"
            },
            {
              "internalType": "string",
              "name": "doctorSpecialization",
              "type": "string"
            },
            {
              "internalType": "string",
              "name": "hospitalName",
              "type": "string"
            },
            {
              "internalType": "string",
              "name": "timeStamp",
              "type": "string"
            },
            {
              "internalType": "string",
              "name": "medicalRecordHash",
              "type": "string"
            },
            {
              "internalType": "address",
              "name": "patientAddress",
              "type": "address"
            }
          ],
          "internalType": "struct UploadEhr.PatientRecord[]",
          "name": "",
          "type": "tuple[]"
        }
      ],
      "stateMutability": "view",
      "type": "function",
      "constant": true
    }
  ],
  "bytecode": "0x608060405234801561001057600080fd5b50611da0806100206000396000f3fe608060405234801561001057600080fd5b506004361061004c5760003560e01c80635bcec38b14610051578063a0076e841461006d578063a7f9fe721461009d578063f880cb39146100bb575b600080fd5b61006b600480360381019061006691906115e6565b6100d7565b005b61008760048036038101906100829190611760565b6104a5565b60405161009491906119e8565b60405180910390f35b6100a5610a7f565b6040516100b291906119e8565b60405180910390f35b6100d560048036038101906100d09190611a0a565b61101b565b005b60006040518061014001604052803373ffffffffffffffffffffffffffffffffffffffff1681526020016040518060400160405280600a81526020017f446961676e6f737469630000000000000000000000000000000000000000000081525081526020018981526020018881526020018781526020018681526020018581526020018481526020018381526020018a73ffffffffffffffffffffffffffffffffffffffff1681525090506000808a73ffffffffffffffffffffffffffffffffffffffff1673ffffffffffffffffffffffffffffffffffffffff1681526020019081526020016000208190806001815401808255809150506001900390600052602060002090600a020160009091909190915060008201518160000160006101000a81548173ffffffffffffffffffffffffffffffffffffffff021916908373ffffffffffffffffffffffffffffffffffffffff16021790555060208201518160010190816102469190611c98565b50604082015181600201908161025c9190611c98565b5060608201518160030190816102729190611c98565b5060808201518160040190816102889190611c98565b5060a082015181600501908161029e9190611c98565b5060c08201518160060190816102b49190611c98565b5060e08201518160070190816102ca9190611c98565b506101008201518160080190816102e19190611c98565b506101208201518160090160006101000a81548173ffffffffffffffffffffffffffffffffffffffff021916908373ffffffffffffffffffffffffffffffffffffffff160217905550505060018190806001815401808255809150506001900390600052602060002090600a020160009091909190915060008201518160000160006101000a81548173ffffffffffffffffffffffffffffffffffffffff021916908373ffffffffffffffffffffffffffffffffffffffff16021790555060208201518160010190816103b49190611c98565b5060408201518160020190816103ca9190611c98565b5060608201518160030190816103e09190611c98565b5060808201518160040190816103f69190611c98565b5060a082015181600501908161040c9190611c98565b5060c08201518160060190816104229190611c98565b5060e08201518160070190816104389190611c98565b5061010082015181600801908161044f9190611c98565b506101208201518160090160006101000a81548173ffffffffffffffffffffffffffffffffffffffff021916908373ffffffffffffffffffffffffffffffffffffffff1602179055505050505050505050505050565b60606000808373ffffffffffffffffffffffffffffffffffffffff1673ffffffffffffffffffffffffffffffffffffffff168152602001908152602001600020805480602002602001604051908101604052809291908181526020016000905b82821015610a7457838290600052602060002090600a0201604051806101400160405290816000820160009054906101000a900473ffffffffffffffffffffffffffffffffffffffff1673ffffffffffffffffffffffffffffffffffffffff1673ffffffffffffffffffffffffffffffffffffffff16815260200160018201805461058f90611ab1565b80601f01602080910402602001604051908101604052809291908181526020018280546105bb90611ab1565b80156106085780601f106105dd57610100808354040283529160200191610608565b820191906000526020600020905b8154815290600101906020018083116105eb57829003601f168201915b5050505050815260200160028201805461062190611ab1565b80601f016020809104026020016040519081016040528092919081815260200182805461064d90611ab1565b801561069a5780601f1061066f5761010080835404028352916020019161069a565b820191906000526020600020905b81548152906001019060200180831161067d57829003601f168201915b505050505081526020016003820180546106b390611ab1565b80601f01602080910402602001604051908101604052809291908181526020018280546106df90611ab1565b801561072c5780601f106107015761010080835404028352916020019161072c565b820191906000526020600020905b81548152906001019060200180831161070f57829003601f168201915b5050505050815260200160048201805461074590611ab1565b80601f016020809104026020016040519081016040528092919081815260200182805461077190611ab1565b80156107be5780601f10610793576101008083540402835291602001916107be565b820191906000526020600020905b8154815290600101906020018083116107a157829003601f168201915b505050505081526020016005820180546107d790611ab1565b80601f016020809104026020016040519081016040528092919081815260200182805461080390611ab1565b80156108505780601f1061082557610100808354040283529160200191610850565b820191906000526020600020905b81548152906001019060200180831161083357829003601f168201915b5050505050815260200160068201805461086990611ab1565b80601f016020809104026020016040519081016040528092919081815260200182805461089590611ab1565b80156108e25780601f106108b7576101008083540402835291602001916108e2565b820191906000526020600020905b8154815290600101906020018083116108c557829003601f168201915b505050505081526020016007820180546108fb90611ab1565b80601f016020809104026020016040519081016040528092919081815260200182805461092790611ab1565b80156109745780601f1061094957610100808354040283529160200191610974565b820191906000526020600020905b81548152906001019060200180831161095757829003601f168201915b5050505050815260200160088201805461098d90611ab1565b80601f01602080910402602001604051908101604052809291908181526020018280546109b990611ab1565b8015610a065780601f106109db57610100808354040283529160200191610a06565b820191906000526020600020905b8154815290600101906020018083116109e957829003601f168201915b505050505081526020016009820160009054906101000a900473ffffffffffffffffffffffffffffffffffffffff1673ffffffffffffffffffffffffffffffffffffffff1673ffffffffffffffffffffffffffffffffffffffff168152505081526020019060010190610505565b505050509050919050565b60606001805480602002602001604051908101604052809291908181526020016000905b8282101561101257838290600052602060002090600a0201604051806101400160405290816000820160009054906101000a900473ffffffffffffffffffffffffffffffffffffffff1673ffffffffffffffffffffffffffffffffffffffff1673ffffffffffffffffffffffffffffffffffffffff168152602001600182018054610b2d90611ab1565b80601f0160208091040260200160405190810160405280929190818152602001828054610b5990611ab1565b8015610ba65780601f10610b7b57610100808354040283529160200191610ba6565b820191906000526020600020905b815481529060010190602001808311610b8957829003601f168201915b50505050508152602001600282018054610bbf90611ab1565b80601f0160208091040260200160405190810160405280929190818152602001828054610beb90611ab1565b8015610c385780601f10610c0d57610100808354040283529160200191610c38565b820191906000526020600020905b815481529060010190602001808311610c1b57829003601f168201915b50505050508152602001600382018054610c5190611ab1565b80601f0160208091040260200160405190810160405280929190818152602001828054610c7d90611ab1565b8015610cca5780601f10610c9f57610100808354040283529160200191610cca565b820191906000526020600020905b815481529060010190602001808311610cad57829003601f168201915b50505050508152602001600482018054610ce390611ab1565b80601f0160208091040260200160405190810160405280929190818152602001828054610d0f90611ab1565b8015610d5c5780601f10610d3157610100808354040283529160200191610d5c565b820191906000526020600020905b815481529060010190602001808311610d3f57829003601f168201915b50505050508152602001600582018054610d7590611ab1565b80601f0160208091040260200160405190810160405280929190818152602001828054610da190611ab1565b8015610dee5780601f10610dc357610100808354040283529160200191610dee565b820191906000526020600020905b815481529060010190602001808311610dd157829003601f168201915b50505050508152602001600682018054610e0790611ab1565b80601f0160208091040260200160405190810160405280929190818152602001828054610e3390611ab1565b8015610e805780601f10610e5557610100808354040283529160200191610e80565b820191906000526020600020905b815481529060010190602001808311610e6357829003601f168201915b50505050508152602001600782018054610e9990611ab1565b80601f0160208091040260200160405190810160405280929190818152602001828054610ec590611ab1565b8015610f125780601f10610ee757610100808354040283529160200191610f12565b820191906000526020600020905b815481529060010190602001808311610ef557829003601f168201915b50505050508152602001600882018054610f2b90611ab1565b80601f0160208091040260200160405190810160405280929190818152602001828054610f5790611ab1565b8015610fa45780601f10610f7957610100808354040283529160200191610fa4565b820191906000526020600020905b815481529060010190602001808311610f8757829003601f168201915b505050505081526020016009820160009054906101000a900473ffffffffffffffffffffffffffffffffffffffff1673ffffffffffffffffffffffffffffffffffffffff1673ffffffffffffffffffffffffffffffffffffffff168152505081526020019060010190610aa3565b50505050905090565b60006040518061014001604052803373ffffffffffffffffffffffffffffffffffffffff1681526020016040518060400160405280600781526020017f50617469656e740000000000000000000000000000000000000000000000000081525081526020016040518060200160405280600081525081526020016040518060200160405280600081525081526020016040518060200160405280600081525081526020016040518060200160405280600081525081526020016040518060200160405280600081525081526020018481526020018381526020013373ffffffffffffffffffffffffffffffffffffffff1681525090506000803373ffffffffffffffffffffffffffffffffffffffff1673ffffffffffffffffffffffffffffffffffffffff1681526020019081526020016000208190806001815401808255809150506001900390600052602060002090600a020160009091909190915060008201518160000160006101000a81548173ffffffffffffffffffffffffffffffffffffffff021916908373ffffffffffffffffffffffffffffffffffffffff16021790555060208201518160010190816111d59190611c98565b5060408201518160020190816111eb9190611c98565b5060608201518160030190816112019190611c98565b5060808201518160040190816112179190611c98565b5060a082015181600501908161122d9190611c98565b5060c08201518160060190816112439190611c98565b5060e08201518160070190816112599190611c98565b506101008201518160080190816112709190611c98565b506101208201518160090160006101000a81548173ffffffffffffffffffffffffffffffffffffffff021916908373ffffffffffffffffffffffffffffffffffffffff160217905550505060018190806001815401808255809150506001900390600052602060002090600a020160009091909190915060008201518160000160006101000a81548173ffffffffffffffffffffffffffffffffffffffff021916908373ffffffffffffffffffffffffffffffffffffffff16021790555060208201518160010190816113439190611c98565b5060408201518160020190816113599190611c98565b50606082015181600301908161136f9190611c98565b5060808201518160040190816113859190611c98565b5060a082015181600501908161139b9190611c98565b5060c08201518160060190816113b19190611c98565b5060e08201518160070190816113c79190611c98565b506101008201518160080190816113de9190611c98565b506101208201518160090160006101000a81548173ffffffffffffffffffffffffffffffffffffffff021916908373ffffffffffffffffffffffffffffffffffffffff1602179055505050505050565b6000604051905090565b600080fd5b600080fd5b600073ffffffffffffffffffffffffffffffffffffffff82169050919050565b600061146d82611442565b9050919050565b61147d81611462565b811461148857600080fd5b50565b60008135905061149a81611474565b92915050565b600080fd5b600080fd5b6000601f19601f8301169050919050565b7f4e487b7100000000000000000000000000000000000000000000000000000000600052604160045260246000fd5b6114f3826114aa565b810181811067ffffffffffffffff82111715611512576115116114bb565b5b80604052505050565b600061152561142e565b905061153182826114ea565b919050565b600067ffffffffffffffff821115611551576115506114bb565b5b61155a826114aa565b9050602081019050919050565b82818337600083830152505050565b600061158961158484611536565b61151b565b9050828152602081018484840111156115a5576115a46114a5565b5b6115b0848285611567565b509392505050565b600082601f8301126115cd576115cc6114a0565b5b81356115dd848260208601611576565b91505092915050565b600080600080600080600080610100898b03121561160757611606611438565b5b60006116158b828c0161148b565b985050602089013567ffffffffffffffff8111156116365761163561143d565b5b6116428b828c016115b8565b975050604089013567ffffffffffffffff8111156116635761166261143d565b5b61166f8b828c016115b8565b965050606089013567ffffffffffffffff8111156116905761168f61143d565b5b61169c8b828c016115b8565b955050608089013567ffffffffffffffff8111156116bd576116bc61143d565b5b6116c98b828c016115b8565b94505060a089013567ffffffffffffffff8111156116ea576116e961143d565b5b6116f68b828c016115b8565b93505060c089013567ffffffffffffffff8111156117175761171661143d565b5b6117238b828c016115b8565b92505060e089013567ffffffffffffffff8111156117445761174361143d565b5b6117508b828c016115b8565b9150509295985092959890939650565b60006020828403121561177657611775611438565b5b60006117848482850161148b565b91505092915050565b600081519050919050565b600082825260208201905092915050565b6000819050602082019050919050565b6117c281611462565b82525050565b600081519050919050565b600082825260208201905092915050565b60005b838110156118025780820151818401526020810190506117e7565b60008484015250505050565b6000611819826117c8565b61182381856117d3565b93506118338185602086016117e4565b61183c816114aa565b840191505092915050565b60006101408301600083015161186060008601826117b9565b5060208301518482036020860152611878828261180e565b91505060408301518482036040860152611892828261180e565b915050606083015184820360608601526118ac828261180e565b915050608083015184820360808601526118c6828261180e565b91505060a083015184820360a08601526118e0828261180e565b91505060c083015184820360c08601526118fa828261180e565b91505060e083015184820360e0860152611914828261180e565b915050610100830151848203610100860152611930828261180e565b9150506101208301516119476101208601826117b9565b508091505092915050565b600061195e8383611847565b905092915050565b6000602082019050919050565b600061197e8261178d565b6119888185611798565b93508360208202850161199a856117a9565b8060005b858110156119d657848403895281516119b78582611952565b94506119c283611966565b925060208a0199505060018101905061199e565b50829750879550505050505092915050565b60006020820190508181036000830152611a028184611973565b905092915050565b60008060408385031215611a2157611a20611438565b5b600083013567ffffffffffffffff811115611a3f57611a3e61143d565b5b611a4b858286016115b8565b925050602083013567ffffffffffffffff811115611a6c57611a6b61143d565b5b611a78858286016115b8565b9150509250929050565b7f4e487b7100000000000000000000000000000000000000000000000000000000600052602260045260246000fd5b60006002820490506001821680611ac957607f821691505b602082108103611adc57611adb611a82565b5b50919050565b60008190508160005260206000209050919050565b60006020601f8301049050919050565b600082821b905092915050565b600060088302611b447fffffffffffffffffffffffffffffffffffffffffffffffffffffffffffffffff82611b07565b611b4e8683611b07565b95508019841693508086168417925050509392505050565b6000819050919050565b6000819050919050565b6000611b95611b90611b8b84611b66565b611b70565b611b66565b9050919050565b6000819050919050565b611baf83611b7a565b611bc3611bbb82611b9c565b848454611b14565b825550505050565b600090565b611bd8611bcb565b611be3818484611ba6565b505050565b5b81811015611c0757611bfc600082611bd0565b600181019050611be9565b5050565b601f821115611c4c57611c1d81611ae2565b611c2684611af7565b81016020851015611c35578190505b611c49611c4185611af7565b830182611be8565b50505b505050565b600082821c905092915050565b6000611c6f60001984600802611c51565b1980831691505092915050565b6000611c888383611c5e565b9150826002028217905092915050565b611ca1826117c8565b67ffffffffffffffff811115611cba57611cb96114bb565b5b611cc48254611ab1565b611ccf828285611c0b565b600060209050601f831160018114611d025760008415611cf0578287015190505b611cfa8582611c7c565b865550611d62565b601f198416611d1086611ae2565b60005b82811015611d3857848901518255600182019150602085019450602081019050611d13565b86831015611d555784890151611d51601f891682611c5e565b8355505b6001600288020188555050505b50505050505056fea2646970667358221220b89fe1f7e0bd51d2064be2f863c854c689bdba3be25c93bbefa2f3db122ed70464736f6c63430008130033",
  "immutableReferences": {},
  "source": "// SPDX-License-Identifier: MIT\r\npragma solidity ^0.8.0;\r\n\r\ncontract UploadEhr {\r\n    struct PatientRecord {\r\n        address uploader;\r\n        string uploaderRole;\r\n        string doctorName;\r\n        string doctorDesignation;\r\n        string doctorDepartment;\r\n        string doctorSpecialization;\r\n        string hospitalName;\r\n        string timeStamp;\r\n        string medicalRecordHash;\r\n        address patientAddress; // <-- Add this field\r\n    }\r\n\r\n    mapping(address => PatientRecord[]) private records;\r\n    PatientRecord[] private allRecords; // <-- Store every record globally\r\n\r\n    // For patient self-upload\r\n    function addPatientRecord(string memory _timeStamp, string memory _medicalRecordHash) public {\r\n        PatientRecord memory newRecord = PatientRecord(\r\n            msg.sender,\r\n            \"Patient\",\r\n            \"\",\r\n            \"\",\r\n            \"\",\r\n            \"\",\r\n            \"\",\r\n            _timeStamp,\r\n            _medicalRecordHash,\r\n            msg.sender\r\n        );\r\n\r\n        records[msg.sender].push(newRecord);\r\n        allRecords.push(newRecord); // <-- also add globally\r\n    }\r\n\r\n    // For diagnostic upload (includes doctor info + patient address)\r\n    function addDiagnosticRecord(\r\n        address _patient,\r\n        string memory _doctorName,\r\n        string memory _doctorDesignation,\r\n        string memory _doctorDepartment,\r\n        string memory _doctorSpecialization,\r\n        string memory _hospitalName,\r\n        string memory _timeStamp,\r\n        string memory _medicalRecordHash\r\n    ) public {\r\n        PatientRecord memory newRecord = PatientRecord(\r\n            msg.sender,\r\n            \"Diagnostic\",\r\n            _doctorName,\r\n            _doctorDesignation,\r\n            _doctorDepartment,\r\n            _doctorSpecialization,\r\n            _hospitalName,\r\n            _timeStamp,\r\n            _medicalRecordHash,\r\n            _patient\r\n        );\r\n\r\n        records[_patient].push(newRecord);\r\n        allRecords.push(newRecord); // <-- also add globally\r\n    }\r\n\r\n    // Get all records for a specific patient\r\n    function getRecords(address _patient) public view returns (PatientRecord[] memory) {\r\n        return records[_patient];\r\n    }\r\n\r\n    // 🔥 Get ALL records (anyone can call this)\r\n    function getAllRecords() public view returns (PatientRecord[] memory) {\r\n        return allRecords;\r\n    }\r\n}\r\n",
  "sourcePath": "C:\\Users\\santh\\Secure Electronic Records\\src\\contracts\\UploadEhr.sol",
  "compiler": {
    "name": "solc",
    "version": "0.8.19+commit.7dd6d404.Emscripten.clang"
  },
  "schemaVersion": "3.4.16",
  "updatedAt": "2026-01-24T07:02:04.449Z",
  "networkType": "ethereum",
  "devdoc": {
    "kind": "dev",
    "methods": {},
    "version": 1
  },
  "userdoc": {
    "kind": "user",
    "methods": {},
    "version": 1
  }
}